{
	"ValueTypes.sol": {
		"ValueTypes": {
			"abi": [
				{
					"inputs": [
						{
							"internalType": "int24",
							"name": "a",
							"type": "int24"
						},
						{
							"internalType": "int24",
							"name": "b",
							"type": "int24"
						}
					],
					"name": "add",
					"outputs": [
						{
							"internalType": "int24",
							"name": "",
							"type": "int24"
						}
					],
					"stateMutability": "pure",
					"type": "function"
				},
				{
					"inputs": [],
					"name": "addressValue",
					"outputs": [
						{
							"internalType": "address",
							"name": "",
							"type": "address"
						}
					],
					"stateMutability": "view",
					"type": "function"
				},
				{
					"inputs": [],
					"name": "boolValue",
					"outputs": [
						{
							"internalType": "bool",
							"name": "",
							"type": "bool"
						}
					],
					"stateMutability": "view",
					"type": "function"
				},
				{
					"inputs": [],
					"name": "bytes4Value",
					"outputs": [
						{
							"internalType": "bytes4",
							"name": "",
							"type": "bytes4"
						}
					],
					"stateMutability": "view",
					"type": "function"
				},
				{
					"inputs": [],
					"name": "intValue",
					"outputs": [
						{
							"internalType": "int256",
							"name": "",
							"type": "int256"
						}
					],
					"stateMutability": "view",
					"type": "function"
				},
				{
					"inputs": [],
					"name": "maxInt",
					"outputs": [
						{
							"internalType": "int256",
							"name": "",
							"type": "int256"
						}
					],
					"stateMutability": "view",
					"type": "function"
				},
				{
					"inputs": [],
					"name": "minInt",
					"outputs": [
						{
							"internalType": "int256",
							"name": "",
							"type": "int256"
						}
					],
					"stateMutability": "view",
					"type": "function"
				},
				{
					"inputs": [],
					"name": "stringValue",
					"outputs": [
						{
							"internalType": "string",
							"name": "",
							"type": "string"
						}
					],
					"stateMutability": "view",
					"type": "function"
				},
				{
					"inputs": [
						{
							"internalType": "int24",
							"name": "a",
							"type": "int24"
						},
						{
							"internalType": "int24",
							"name": "b",
							"type": "int24"
						}
					],
					"name": "subtract",
					"outputs": [
						{
							"internalType": "int24",
							"name": "",
							"type": "int24"
						}
					],
					"stateMutability": "pure",
					"type": "function"
				},
				{
					"inputs": [],
					"name": "uintValue",
					"outputs": [
						{
							"internalType": "uint256",
							"name": "",
							"type": "uint256"
						}
					],
					"stateMutability": "view",
					"type": "function"
				}
			],
			"devdoc": {
				"kind": "dev",
				"methods": {},
				"version": 1
			},
			"evm": {
				"assembly": "    /* \"ValueTypes.sol\":58:614  contract ValueTypes {... */\n  mstore(0x40, 0x80)\n    /* \"ValueTypes.sol\":108:113  false */\n  0x00\n    /* \"ValueTypes.sol\":84:113  bool public boolValue = false */\n  0x00\n  exp(0x0100, 0x00)\n  dup2\n  sload\n  dup2\n  0xff\n  mul\n  not\n  and\n  swap1\n  dup4\n  iszero\n  iszero\n  mul\n  or\n  swap1\n  sstore\n  pop\n    /* \"ValueTypes.sol\":143:146  123 */\n  0x7b\n    /* \"ValueTypes.sol\":119:146  uint public uintValue = 123 */\n  0x01\n  sstore\n    /* \"ValueTypes.sol\":174:178  -123 */\n  0xffffffffffffffffffffffffffffffffffffffffffffffffffffffffffffff85\n    /* \"ValueTypes.sol\":152:178  int public intValue = -123 */\n  0x02\n  sstore\n    /* \"ValueTypes.sol\":184:237  string public stringValue = \"This is a string value.\" */\n  mload(0x40)\n  dup1\n  0x40\n  add\n  0x40\n  mstore\n  dup1\n  0x17\n  dup2\n  mstore\n  0x20\n  add\n  0x54686973206973206120737472696e672076616c75652e000000000000000000\n  dup2\n  mstore\n  pop\n  0x03\n  swap1\n  dup2\n  tag_1\n  swap2\n  swap1\n  tag_2\n  jump\t// in\ntag_1:\n  pop\n    /* \"ValueTypes.sol\":281:285  this */\n  address\n    /* \"ValueTypes.sol\":243:286  address public addressValue = address(this) */\n  0x04\n  exp(0x0100, 0x00)\n  dup2\n  sload\n  dup2\n  0xffffffffffffffffffffffffffffffffffffffff\n  mul\n  not\n  and\n  swap1\n  dup4\n  0xffffffffffffffffffffffffffffffffffffffff\n  and\n  mul\n  or\n  swap1\n  sstore\n  pop\n    /* \"ValueTypes.sol\":327:337  0xDEADBEEF */\n  0xdeadbeef\n    /* \"ValueTypes.sol\":320:338  bytes4(0xDEADBEEF) */\n  0xe0\n  shl\n    /* \"ValueTypes.sol\":292:338  bytes4 public bytes4Value = bytes4(0xDEADBEEF) */\n  0x04\n  exp(0x0100, 0x14)\n  dup2\n  sload\n  dup2\n  0xffffffff\n  mul\n  not\n  and\n  swap1\n  dup4\n  0xe0\n  shr\n  mul\n  or\n  swap1\n  sstore\n  pop\n    /* \"ValueTypes.sol\":365:378  type(int).min */\n  0x8000000000000000000000000000000000000000000000000000000000000000\n    /* \"ValueTypes.sol\":345:378  int public minInt = type(int).min */\n  0x05\n  sstore\n    /* \"ValueTypes.sol\":404:417  type(int).max */\n  0x7fffffffffffffffffffffffffffffffffffffffffffffffffffffffffffffff\n    /* \"ValueTypes.sol\":384:417  int public maxInt = type(int).max */\n  0x06\n  sstore\n    /* \"ValueTypes.sol\":58:614  contract ValueTypes {... */\n  callvalue\n  dup1\n  iszero\n  tag_3\n  jumpi\n  revert(0x00, 0x00)\ntag_3:\n  pop\n  jump(tag_4)\n    /* \"#utility.yul\":7:106   */\ntag_5:\n    /* \"#utility.yul\":59:65   */\n  0x00\n    /* \"#utility.yul\":93:98   */\n  dup2\n    /* \"#utility.yul\":87:99   */\n  mload\n    /* \"#utility.yul\":77:99   */\n  swap1\n  pop\n    /* \"#utility.yul\":7:106   */\n  swap2\n  swap1\n  pop\n  jump\t// out\n    /* \"#utility.yul\":112:292   */\ntag_6:\n    /* \"#utility.yul\":160:237   */\n  0x4e487b7100000000000000000000000000000000000000000000000000000000\n    /* \"#utility.yul\":157:158   */\n  0x00\n    /* \"#utility.yul\":150:238   */\n  mstore\n    /* \"#utility.yul\":257:261   */\n  0x41\n    /* \"#utility.yul\":254:255   */\n  0x04\n    /* \"#utility.yul\":247:262   */\n  mstore\n    /* \"#utility.yul\":281:285   */\n  0x24\n    /* \"#utility.yul\":278:279   */\n  0x00\n    /* \"#utility.yul\":271:286   */\n  revert\n    /* \"#utility.yul\":298:478   */\ntag_7:\n    /* \"#utility.yul\":346:423   */\n  0x4e487b7100000000000000000000000000000000000000000000000000000000\n    /* \"#utility.yul\":343:344   */\n  0x00\n    /* \"#utility.yul\":336:424   */\n  mstore\n    /* \"#utility.yul\":443:447   */\n  0x22\n    /* \"#utility.yul\":440:441   */\n  0x04\n    /* \"#utility.yul\":433:448   */\n  mstore\n    /* \"#utility.yul\":467:471   */\n  0x24\n    /* \"#utility.yul\":464:465   */\n  0x00\n    /* \"#utility.yul\":457:472   */\n  revert\n    /* \"#utility.yul\":484:804   */\ntag_8:\n    /* \"#utility.yul\":528:534   */\n  0x00\n    /* \"#utility.yul\":565:566   */\n  0x02\n    /* \"#utility.yul\":559:563   */\n  dup3\n    /* \"#utility.yul\":555:567   */\n  div\n    /* \"#utility.yul\":545:567   */\n  swap1\n  pop\n    /* \"#utility.yul\":612:613   */\n  0x01\n    /* \"#utility.yul\":606:610   */\n  dup3\n    /* \"#utility.yul\":602:614   */\n  and\n    /* \"#utility.yul\":633:651   */\n  dup1\n    /* \"#utility.yul\":623:704   */\n  tag_30\n  jumpi\n    /* \"#utility.yul\":689:693   */\n  0x7f\n    /* \"#utility.yul\":681:687   */\n  dup3\n    /* \"#utility.yul\":677:694   */\n  and\n    /* \"#utility.yul\":667:694   */\n  swap2\n  pop\n    /* \"#utility.yul\":623:704   */\ntag_30:\n    /* \"#utility.yul\":751:753   */\n  0x20\n    /* \"#utility.yul\":743:749   */\n  dup3\n    /* \"#utility.yul\":740:754   */\n  lt\n    /* \"#utility.yul\":720:738   */\n  dup2\n    /* \"#utility.yul\":717:755   */\n  sub\n    /* \"#utility.yul\":714:798   */\n  tag_31\n  jumpi\n    /* \"#utility.yul\":770:788   */\n  tag_32\n  tag_7\n  jump\t// in\ntag_32:\n    /* \"#utility.yul\":714:798   */\ntag_31:\n    /* \"#utility.yul\":535:804   */\n  pop\n    /* \"#utility.yul\":484:804   */\n  swap2\n  swap1\n  pop\n  jump\t// out\n    /* \"#utility.yul\":810:951   */\ntag_9:\n    /* \"#utility.yul\":859:863   */\n  0x00\n    /* \"#utility.yul\":882:885   */\n  dup2\n    /* \"#utility.yul\":874:885   */\n  swap1\n  pop\n    /* \"#utility.yul\":905:908   */\n  dup2\n    /* \"#utility.yul\":902:903   */\n  0x00\n    /* \"#utility.yul\":895:909   */\n  mstore\n    /* \"#utility.yul\":939:943   */\n  0x20\n    /* \"#utility.yul\":936:937   */\n  0x00\n    /* \"#utility.yul\":926:944   */\n  keccak256\n    /* \"#utility.yul\":918:944   */\n  swap1\n  pop\n    /* \"#utility.yul\":810:951   */\n  swap2\n  swap1\n  pop\n  jump\t// out\n    /* \"#utility.yul\":957:1050   */\ntag_10:\n    /* \"#utility.yul\":994:1000   */\n  0x00\n    /* \"#utility.yul\":1041:1043   */\n  0x20\n    /* \"#utility.yul\":1036:1038   */\n  0x1f\n    /* \"#utility.yul\":1029:1034   */\n  dup4\n    /* \"#utility.yul\":1025:1039   */\n  add\n    /* \"#utility.yul\":1021:1044   */\n  div\n    /* \"#utility.yul\":1011:1044   */\n  swap1\n  pop\n    /* \"#utility.yul\":957:1050   */\n  swap2\n  swap1\n  pop\n  jump\t// out\n    /* \"#utility.yul\":1056:1163   */\ntag_11:\n    /* \"#utility.yul\":1100:1108   */\n  0x00\n    /* \"#utility.yul\":1150:1155   */\n  dup3\n    /* \"#utility.yul\":1144:1148   */\n  dup3\n    /* \"#utility.yul\":1140:1156   */\n  shl\n    /* \"#utility.yul\":1119:1156   */\n  swap1\n  pop\n    /* \"#utility.yul\":1056:1163   */\n  swap3\n  swap2\n  pop\n  pop\n  jump\t// out\n    /* \"#utility.yul\":1169:1562   */\ntag_12:\n    /* \"#utility.yul\":1238:1244   */\n  0x00\n    /* \"#utility.yul\":1288:1289   */\n  0x08\n    /* \"#utility.yul\":1276:1286   */\n  dup4\n    /* \"#utility.yul\":1272:1290   */\n  mul\n    /* \"#utility.yul\":1311:1408   */\n  tag_37\n    /* \"#utility.yul\":1341:1407   */\n  0xffffffffffffffffffffffffffffffffffffffffffffffffffffffffffffffff\n    /* \"#utility.yul\":1330:1339   */\n  dup3\n    /* \"#utility.yul\":1311:1408   */\n  tag_11\n  jump\t// in\ntag_37:\n    /* \"#utility.yul\":1429:1468   */\n  tag_38\n    /* \"#utility.yul\":1459:1467   */\n  dup7\n    /* \"#utility.yul\":1448:1457   */\n  dup4\n    /* \"#utility.yul\":1429:1468   */\n  tag_11\n  jump\t// in\ntag_38:\n    /* \"#utility.yul\":1417:1468   */\n  swap6\n  pop\n    /* \"#utility.yul\":1501:1505   */\n  dup1\n    /* \"#utility.yul\":1497:1506   */\n  not\n    /* \"#utility.yul\":1490:1495   */\n  dup5\n    /* \"#utility.yul\":1486:1507   */\n  and\n    /* \"#utility.yul\":1477:1507   */\n  swap4\n  pop\n    /* \"#utility.yul\":1550:1554   */\n  dup1\n    /* \"#utility.yul\":1540:1548   */\n  dup7\n    /* \"#utility.yul\":1536:1555   */\n  and\n    /* \"#utility.yul\":1529:1534   */\n  dup5\n    /* \"#utility.yul\":1526:1556   */\n  or\n    /* \"#utility.yul\":1516:1556   */\n  swap3\n  pop\n    /* \"#utility.yul\":1245:1562   */\n  pop\n  pop\n    /* \"#utility.yul\":1169:1562   */\n  swap4\n  swap3\n  pop\n  pop\n  pop\n  jump\t// out\n    /* \"#utility.yul\":1568:1645   */\ntag_13:\n    /* \"#utility.yul\":1605:1612   */\n  0x00\n    /* \"#utility.yul\":1634:1639   */\n  dup2\n    /* \"#utility.yul\":1623:1639   */\n  swap1\n  pop\n    /* \"#utility.yul\":1568:1645   */\n  swap2\n  swap1\n  pop\n  jump\t// out\n    /* \"#utility.yul\":1651:1711   */\ntag_14:\n    /* \"#utility.yul\":1679:1682   */\n  0x00\n    /* \"#utility.yul\":1700:1705   */\n  dup2\n    /* \"#utility.yul\":1693:1705   */\n  swap1\n  pop\n    /* \"#utility.yul\":1651:1711   */\n  swap2\n  swap1\n  pop\n  jump\t// out\n    /* \"#utility.yul\":1717:1859   */\ntag_15:\n    /* \"#utility.yul\":1767:1776   */\n  0x00\n    /* \"#utility.yul\":1800:1853   */\n  tag_42\n    /* \"#utility.yul\":1818:1852   */\n  tag_43\n    /* \"#utility.yul\":1827:1851   */\n  tag_44\n    /* \"#utility.yul\":1845:1850   */\n  dup5\n    /* \"#utility.yul\":1827:1851   */\n  tag_13\n  jump\t// in\ntag_44:\n    /* \"#utility.yul\":1818:1852   */\n  tag_14\n  jump\t// in\ntag_43:\n    /* \"#utility.yul\":1800:1853   */\n  tag_13\n  jump\t// in\ntag_42:\n    /* \"#utility.yul\":1787:1853   */\n  swap1\n  pop\n    /* \"#utility.yul\":1717:1859   */\n  swap2\n  swap1\n  pop\n  jump\t// out\n    /* \"#utility.yul\":1865:1940   */\ntag_16:\n    /* \"#utility.yul\":1908:1911   */\n  0x00\n    /* \"#utility.yul\":1929:1934   */\n  dup2\n    /* \"#utility.yul\":1922:1934   */\n  swap1\n  pop\n    /* \"#utility.yul\":1865:1940   */\n  swap2\n  swap1\n  pop\n  jump\t// out\n    /* \"#utility.yul\":1946:2215   */\ntag_17:\n    /* \"#utility.yul\":2056:2095   */\n  tag_47\n    /* \"#utility.yul\":2087:2094   */\n  dup4\n    /* \"#utility.yul\":2056:2095   */\n  tag_15\n  jump\t// in\ntag_47:\n    /* \"#utility.yul\":2117:2208   */\n  tag_48\n    /* \"#utility.yul\":2166:2207   */\n  tag_49\n    /* \"#utility.yul\":2190:2206   */\n  dup3\n    /* \"#utility.yul\":2166:2207   */\n  tag_16\n  jump\t// in\ntag_49:\n    /* \"#utility.yul\":2158:2164   */\n  dup5\n    /* \"#utility.yul\":2151:2155   */\n  dup5\n    /* \"#utility.yul\":2145:2156   */\n  sload\n    /* \"#utility.yul\":2117:2208   */\n  tag_12\n  jump\t// in\ntag_48:\n    /* \"#utility.yul\":2111:2115   */\n  dup3\n    /* \"#utility.yul\":2104:2209   */\n  sstore\n    /* \"#utility.yul\":2022:2215   */\n  pop\n    /* \"#utility.yul\":1946:2215   */\n  pop\n  pop\n  pop\n  jump\t// out\n    /* \"#utility.yul\":2221:2294   */\ntag_18:\n    /* \"#utility.yul\":2266:2269   */\n  0x00\n    /* \"#utility.yul\":2287:2288   */\n  0x00\n    /* \"#utility.yul\":2280:2288   */\n  swap1\n  pop\n    /* \"#utility.yul\":2221:2294   */\n  swap1\n  jump\t// out\n    /* \"#utility.yul\":2300:2489   */\ntag_19:\n    /* \"#utility.yul\":2377:2409   */\n  tag_52\n  tag_18\n  jump\t// in\ntag_52:\n    /* \"#utility.yul\":2418:2483   */\n  tag_53\n    /* \"#utility.yul\":2476:2482   */\n  dup2\n    /* \"#utility.yul\":2468:2474   */\n  dup5\n    /* \"#utility.yul\":2462:2466   */\n  dup5\n    /* \"#utility.yul\":2418:2483   */\n  tag_17\n  jump\t// in\ntag_53:\n    /* \"#utility.yul\":2353:2489   */\n  pop\n    /* \"#utility.yul\":2300:2489   */\n  pop\n  pop\n  jump\t// out\n    /* \"#utility.yul\":2495:2681   */\ntag_20:\n    /* \"#utility.yul\":2555:2675   */\ntag_55:\n    /* \"#utility.yul\":2572:2575   */\n  dup2\n    /* \"#utility.yul\":2565:2570   */\n  dup2\n    /* \"#utility.yul\":2562:2576   */\n  lt\n    /* \"#utility.yul\":2555:2675   */\n  iszero\n  tag_57\n  jumpi\n    /* \"#utility.yul\":2626:2665   */\n  tag_58\n    /* \"#utility.yul\":2663:2664   */\n  0x00\n    /* \"#utility.yul\":2656:2661   */\n  dup3\n    /* \"#utility.yul\":2626:2665   */\n  tag_19\n  jump\t// in\ntag_58:\n    /* \"#utility.yul\":2599:2600   */\n  0x01\n    /* \"#utility.yul\":2592:2597   */\n  dup2\n    /* \"#utility.yul\":2588:2601   */\n  add\n    /* \"#utility.yul\":2579:2601   */\n  swap1\n  pop\n    /* \"#utility.yul\":2555:2675   */\n  jump(tag_55)\ntag_57:\n    /* \"#utility.yul\":2495:2681   */\n  pop\n  pop\n  jump\t// out\n    /* \"#utility.yul\":2687:3230   */\ntag_21:\n    /* \"#utility.yul\":2788:2790   */\n  0x1f\n    /* \"#utility.yul\":2783:2786   */\n  dup3\n    /* \"#utility.yul\":2780:2791   */\n  gt\n    /* \"#utility.yul\":2777:3223   */\n  iszero\n  tag_60\n  jumpi\n    /* \"#utility.yul\":2822:2860   */\n  tag_61\n    /* \"#utility.yul\":2854:2859   */\n  dup2\n    /* \"#utility.yul\":2822:2860   */\n  tag_9\n  jump\t// in\ntag_61:\n    /* \"#utility.yul\":2906:2935   */\n  tag_62\n    /* \"#utility.yul\":2924:2934   */\n  dup5\n    /* \"#utility.yul\":2906:2935   */\n  tag_10\n  jump\t// in\ntag_62:\n    /* \"#utility.yul\":2896:2904   */\n  dup2\n    /* \"#utility.yul\":2892:2936   */\n  add\n    /* \"#utility.yul\":3089:3091   */\n  0x20\n    /* \"#utility.yul\":3077:3087   */\n  dup6\n    /* \"#utility.yul\":3074:3092   */\n  lt\n    /* \"#utility.yul\":3071:3120   */\n  iszero\n  tag_63\n  jumpi\n    /* \"#utility.yul\":3110:3118   */\n  dup2\n    /* \"#utility.yul\":3095:3118   */\n  swap1\n  pop\n    /* \"#utility.yul\":3071:3120   */\ntag_63:\n    /* \"#utility.yul\":3133:3213   */\n  tag_64\n    /* \"#utility.yul\":3189:3211   */\n  tag_65\n    /* \"#utility.yul\":3207:3210   */\n  dup6\n    /* \"#utility.yul\":3189:3211   */\n  tag_10\n  jump\t// in\ntag_65:\n    /* \"#utility.yul\":3179:3187   */\n  dup4\n    /* \"#utility.yul\":3175:3212   */\n  add\n    /* \"#utility.yul\":3162:3173   */\n  dup3\n    /* \"#utility.yul\":3133:3213   */\n  tag_20\n  jump\t// in\ntag_64:\n    /* \"#utility.yul\":2792:3223   */\n  pop\n  pop\n    /* \"#utility.yul\":2777:3223   */\ntag_60:\n    /* \"#utility.yul\":2687:3230   */\n  pop\n  pop\n  pop\n  jump\t// out\n    /* \"#utility.yul\":3236:3353   */\ntag_22:\n    /* \"#utility.yul\":3290:3298   */\n  0x00\n    /* \"#utility.yul\":3340:3345   */\n  dup3\n    /* \"#utility.yul\":3334:3338   */\n  dup3\n    /* \"#utility.yul\":3330:3346   */\n  shr\n    /* \"#utility.yul\":3309:3346   */\n  swap1\n  pop\n    /* \"#utility.yul\":3236:3353   */\n  swap3\n  swap2\n  pop\n  pop\n  jump\t// out\n    /* \"#utility.yul\":3359:3528   */\ntag_23:\n    /* \"#utility.yul\":3403:3409   */\n  0x00\n    /* \"#utility.yul\":3436:3487   */\n  tag_68\n    /* \"#utility.yul\":3484:3485   */\n  0x00\n    /* \"#utility.yul\":3480:3486   */\n  not\n    /* \"#utility.yul\":3472:3477   */\n  dup5\n    /* \"#utility.yul\":3469:3470   */\n  0x08\n    /* \"#utility.yul\":3465:3478   */\n  mul\n    /* \"#utility.yul\":3436:3487   */\n  tag_22\n  jump\t// in\ntag_68:\n    /* \"#utility.yul\":3432:3488   */\n  not\n    /* \"#utility.yul\":3517:3521   */\n  dup1\n    /* \"#utility.yul\":3511:3515   */\n  dup4\n    /* \"#utility.yul\":3507:3522   */\n  and\n    /* \"#utility.yul\":3497:3522   */\n  swap2\n  pop\n    /* \"#utility.yul\":3410:3528   */\n  pop\n    /* \"#utility.yul\":3359:3528   */\n  swap3\n  swap2\n  pop\n  pop\n  jump\t// out\n    /* \"#utility.yul\":3533:3828   */\ntag_24:\n    /* \"#utility.yul\":3609:3613   */\n  0x00\n    /* \"#utility.yul\":3755:3784   */\n  tag_70\n    /* \"#utility.yul\":3780:3783   */\n  dup4\n    /* \"#utility.yul\":3774:3778   */\n  dup4\n    /* \"#utility.yul\":3755:3784   */\n  tag_23\n  jump\t// in\ntag_70:\n    /* \"#utility.yul\":3747:3784   */\n  swap2\n  pop\n    /* \"#utility.yul\":3817:3820   */\n  dup3\n    /* \"#utility.yul\":3814:3815   */\n  0x02\n    /* \"#utility.yul\":3810:3821   */\n  mul\n    /* \"#utility.yul\":3804:3808   */\n  dup3\n    /* \"#utility.yul\":3801:3822   */\n  or\n    /* \"#utility.yul\":3793:3822   */\n  swap1\n  pop\n    /* \"#utility.yul\":3533:3828   */\n  swap3\n  swap2\n  pop\n  pop\n  jump\t// out\n    /* \"#utility.yul\":3833:5228   */\ntag_2:\n    /* \"#utility.yul\":3950:3987   */\n  tag_72\n    /* \"#utility.yul\":3983:3986   */\n  dup3\n    /* \"#utility.yul\":3950:3987   */\n  tag_5\n  jump\t// in\ntag_72:\n    /* \"#utility.yul\":4052:4070   */\n  0xffffffffffffffff\n    /* \"#utility.yul\":4044:4050   */\n  dup2\n    /* \"#utility.yul\":4041:4071   */\n  gt\n    /* \"#utility.yul\":4038:4094   */\n  iszero\n  tag_73\n  jumpi\n    /* \"#utility.yul\":4074:4092   */\n  tag_74\n  tag_6\n  jump\t// in\ntag_74:\n    /* \"#utility.yul\":4038:4094   */\ntag_73:\n    /* \"#utility.yul\":4118:4156   */\n  tag_75\n    /* \"#utility.yul\":4150:4154   */\n  dup3\n    /* \"#utility.yul\":4144:4155   */\n  sload\n    /* \"#utility.yul\":4118:4156   */\n  tag_8\n  jump\t// in\ntag_75:\n    /* \"#utility.yul\":4203:4270   */\n  tag_76\n    /* \"#utility.yul\":4263:4269   */\n  dup3\n    /* \"#utility.yul\":4255:4261   */\n  dup3\n    /* \"#utility.yul\":4249:4253   */\n  dup6\n    /* \"#utility.yul\":4203:4270   */\n  tag_21\n  jump\t// in\ntag_76:\n    /* \"#utility.yul\":4297:4298   */\n  0x00\n    /* \"#utility.yul\":4321:4325   */\n  0x20\n    /* \"#utility.yul\":4308:4325   */\n  swap1\n  pop\n    /* \"#utility.yul\":4353:4355   */\n  0x1f\n    /* \"#utility.yul\":4345:4351   */\n  dup4\n    /* \"#utility.yul\":4342:4356   */\n  gt\n    /* \"#utility.yul\":4370:4371   */\n  0x01\n    /* \"#utility.yul\":4365:4983   */\n  dup2\n  eq\n  tag_78\n  jumpi\n    /* \"#utility.yul\":5027:5028   */\n  0x00\n    /* \"#utility.yul\":5044:5050   */\n  dup5\n    /* \"#utility.yul\":5041:5118   */\n  iszero\n  tag_79\n  jumpi\n    /* \"#utility.yul\":5093:5102   */\n  dup3\n    /* \"#utility.yul\":5088:5091   */\n  dup8\n    /* \"#utility.yul\":5084:5103   */\n  add\n    /* \"#utility.yul\":5078:5104   */\n  mload\n    /* \"#utility.yul\":5069:5104   */\n  swap1\n  pop\n    /* \"#utility.yul\":5041:5118   */\ntag_79:\n    /* \"#utility.yul\":5144:5211   */\n  tag_80\n    /* \"#utility.yul\":5204:5210   */\n  dup6\n    /* \"#utility.yul\":5197:5202   */\n  dup3\n    /* \"#utility.yul\":5144:5211   */\n  tag_24\n  jump\t// in\ntag_80:\n    /* \"#utility.yul\":5138:5142   */\n  dup7\n    /* \"#utility.yul\":5131:5212   */\n  sstore\n    /* \"#utility.yul\":5000:5222   */\n  pop\n    /* \"#utility.yul\":4335:5222   */\n  jump(tag_77)\n    /* \"#utility.yul\":4365:4983   */\ntag_78:\n    /* \"#utility.yul\":4417:4421   */\n  0x1f\n    /* \"#utility.yul\":4413:4422   */\n  not\n    /* \"#utility.yul\":4405:4411   */\n  dup5\n    /* \"#utility.yul\":4401:4423   */\n  and\n    /* \"#utility.yul\":4451:4488   */\n  tag_81\n    /* \"#utility.yul\":4483:4487   */\n  dup7\n    /* \"#utility.yul\":4451:4488   */\n  tag_9\n  jump\t// in\ntag_81:\n    /* \"#utility.yul\":4510:4511   */\n  0x00\n    /* \"#utility.yul\":4524:4732   */\ntag_82:\n    /* \"#utility.yul\":4538:4545   */\n  dup3\n    /* \"#utility.yul\":4535:4536   */\n  dup2\n    /* \"#utility.yul\":4532:4546   */\n  lt\n    /* \"#utility.yul\":4524:4732   */\n  iszero\n  tag_84\n  jumpi\n    /* \"#utility.yul\":4617:4626   */\n  dup5\n    /* \"#utility.yul\":4612:4615   */\n  dup10\n    /* \"#utility.yul\":4608:4627   */\n  add\n    /* \"#utility.yul\":4602:4628   */\n  mload\n    /* \"#utility.yul\":4594:4600   */\n  dup3\n    /* \"#utility.yul\":4587:4629   */\n  sstore\n    /* \"#utility.yul\":4668:4669   */\n  0x01\n    /* \"#utility.yul\":4660:4666   */\n  dup3\n    /* \"#utility.yul\":4656:4670   */\n  add\n    /* \"#utility.yul\":4646:4670   */\n  swap2\n  pop\n    /* \"#utility.yul\":4715:4717   */\n  0x20\n    /* \"#utility.yul\":4704:4713   */\n  dup6\n    /* \"#utility.yul\":4700:4718   */\n  add\n    /* \"#utility.yul\":4687:4718   */\n  swap5\n  pop\n    /* \"#utility.yul\":4561:4565   */\n  0x20\n    /* \"#utility.yul\":4558:4559   */\n  dup2\n    /* \"#utility.yul\":4554:4566   */\n  add\n    /* \"#utility.yul\":4549:4566   */\n  swap1\n  pop\n    /* \"#utility.yul\":4524:4732   */\n  jump(tag_82)\ntag_84:\n    /* \"#utility.yul\":4760:4766   */\n  dup7\n    /* \"#utility.yul\":4751:4758   */\n  dup4\n    /* \"#utility.yul\":4748:4767   */\n  lt\n    /* \"#utility.yul\":4745:4924   */\n  iszero\n  tag_85\n  jumpi\n    /* \"#utility.yul\":4818:4827   */\n  dup5\n    /* \"#utility.yul\":4813:4816   */\n  dup10\n    /* \"#utility.yul\":4809:4828   */\n  add\n    /* \"#utility.yul\":4803:4829   */\n  mload\n    /* \"#utility.yul\":4861:4909   */\n  tag_86\n    /* \"#utility.yul\":4903:4907   */\n  0x1f\n    /* \"#utility.yul\":4895:4901   */\n  dup10\n    /* \"#utility.yul\":4891:4908   */\n  and\n    /* \"#utility.yul\":4880:4889   */\n  dup3\n    /* \"#utility.yul\":4861:4909   */\n  tag_23\n  jump\t// in\ntag_86:\n    /* \"#utility.yul\":4853:4859   */\n  dup4\n    /* \"#utility.yul\":4846:4910   */\n  sstore\n    /* \"#utility.yul\":4768:4924   */\n  pop\n    /* \"#utility.yul\":4745:4924   */\ntag_85:\n    /* \"#utility.yul\":4970:4971   */\n  0x01\n    /* \"#utility.yul\":4966:4967   */\n  0x02\n    /* \"#utility.yul\":4958:4964   */\n  dup9\n    /* \"#utility.yul\":4954:4968   */\n  mul\n    /* \"#utility.yul\":4950:4972   */\n  add\n    /* \"#utility.yul\":4944:4948   */\n  dup9\n    /* \"#utility.yul\":4937:4973   */\n  sstore\n    /* \"#utility.yul\":4372:4983   */\n  pop\n  pop\n  pop\n    /* \"#utility.yul\":4335:5222   */\ntag_77:\n  pop\n    /* \"#utility.yul\":3925:5228   */\n  pop\n  pop\n  pop\n    /* \"#utility.yul\":3833:5228   */\n  pop\n  pop\n  jump\t// out\n    /* \"ValueTypes.sol\":58:614  contract ValueTypes {... */\ntag_4:\n  dataSize(sub_0)\n  dup1\n  dataOffset(sub_0)\n  0x00\n  codecopy\n  0x00\n  return\nstop\n\nsub_0: assembly {\n        /* \"ValueTypes.sol\":58:614  contract ValueTypes {... */\n      mstore(0x40, 0x80)\n      callvalue\n      dup1\n      iszero\n      tag_1\n      jumpi\n      revert(0x00, 0x00)\n    tag_1:\n      pop\n      jumpi(tag_2, lt(calldatasize, 0x04))\n      shr(0xe0, calldataload(0x00))\n      dup1\n      0x93af578d\n      gt\n      tag_13\n      jumpi\n      dup1\n      0x93af578d\n      eq\n      tag_8\n      jumpi\n      dup1\n      0x988817b0\n      eq\n      tag_9\n      jumpi\n      dup1\n      0xb7c8b166\n      eq\n      tag_10\n      jumpi\n      dup1\n      0xe0f82151\n      eq\n      tag_11\n      jumpi\n      dup1\n      0xe1d16b83\n      eq\n      tag_12\n      jumpi\n      jump(tag_2)\n    tag_13:\n      dup1\n      0x0c4dae88\n      eq\n      tag_3\n      jumpi\n      dup1\n      0x4a9fb828\n      eq\n      tag_4\n      jumpi\n      dup1\n      0x7a4c2571\n      eq\n      tag_5\n      jumpi\n      dup1\n      0x7dc93929\n      eq\n      tag_6\n      jumpi\n      dup1\n      0x7e4e14cc\n      eq\n      tag_7\n      jumpi\n    tag_2:\n      revert(0x00, 0x00)\n        /* \"ValueTypes.sol\":152:178  int public intValue = -123 */\n    tag_3:\n      tag_14\n      tag_15\n      jump\t// in\n    tag_14:\n      mload(0x40)\n      tag_16\n      swap2\n      swap1\n      tag_17\n      jump\t// in\n    tag_16:\n      mload(0x40)\n      dup1\n      swap2\n      sub\n      swap1\n      return\n        /* \"ValueTypes.sol\":424:512  function add(int24 a, int24 b) pure external returns(int24){... */\n    tag_4:\n      tag_18\n      0x04\n      dup1\n      calldatasize\n      sub\n      dup2\n      add\n      swap1\n      tag_19\n      swap2\n      swap1\n      tag_20\n      jump\t// in\n    tag_19:\n      tag_21\n      jump\t// in\n    tag_18:\n      mload(0x40)\n      tag_22\n      swap2\n      swap1\n      tag_23\n      jump\t// in\n    tag_22:\n      mload(0x40)\n      dup1\n      swap2\n      sub\n      swap1\n      return\n        /* \"ValueTypes.sol\":384:417  int public maxInt = type(int).max */\n    tag_5:\n      tag_24\n      tag_25\n      jump\t// in\n    tag_24:\n      mload(0x40)\n      tag_26\n      swap2\n      swap1\n      tag_17\n      jump\t// in\n    tag_26:\n      mload(0x40)\n      dup1\n      swap2\n      sub\n      swap1\n      return\n        /* \"ValueTypes.sol\":184:237  string public stringValue = \"This is a string value.\" */\n    tag_6:\n      tag_27\n      tag_28\n      jump\t// in\n    tag_27:\n      mload(0x40)\n      tag_29\n      swap2\n      swap1\n      tag_30\n      jump\t// in\n    tag_29:\n      mload(0x40)\n      dup1\n      swap2\n      sub\n      swap1\n      return\n        /* \"ValueTypes.sol\":345:378  int public minInt = type(int).min */\n    tag_7:\n      tag_31\n      tag_32\n      jump\t// in\n    tag_31:\n      mload(0x40)\n      tag_33\n      swap2\n      swap1\n      tag_17\n      jump\t// in\n    tag_33:\n      mload(0x40)\n      dup1\n      swap2\n      sub\n      swap1\n      return\n        /* \"ValueTypes.sol\":84:113  bool public boolValue = false */\n    tag_8:\n      tag_34\n      tag_35\n      jump\t// in\n    tag_34:\n      mload(0x40)\n      tag_36\n      swap2\n      swap1\n      tag_37\n      jump\t// in\n    tag_36:\n      mload(0x40)\n      dup1\n      swap2\n      sub\n      swap1\n      return\n        /* \"ValueTypes.sol\":119:146  uint public uintValue = 123 */\n    tag_9:\n      tag_38\n      tag_39\n      jump\t// in\n    tag_38:\n      mload(0x40)\n      tag_40\n      swap2\n      swap1\n      tag_41\n      jump\t// in\n    tag_40:\n      mload(0x40)\n      dup1\n      swap2\n      sub\n      swap1\n      return\n        /* \"ValueTypes.sol\":518:612  function subtract(int24 a, int24 b) pure external returns(int24) {... */\n    tag_10:\n      tag_42\n      0x04\n      dup1\n      calldatasize\n      sub\n      dup2\n      add\n      swap1\n      tag_43\n      swap2\n      swap1\n      tag_20\n      jump\t// in\n    tag_43:\n      tag_44\n      jump\t// in\n    tag_42:\n      mload(0x40)\n      tag_45\n      swap2\n      swap1\n      tag_23\n      jump\t// in\n    tag_45:\n      mload(0x40)\n      dup1\n      swap2\n      sub\n      swap1\n      return\n        /* \"ValueTypes.sol\":292:338  bytes4 public bytes4Value = bytes4(0xDEADBEEF) */\n    tag_11:\n      tag_46\n      tag_47\n      jump\t// in\n    tag_46:\n      mload(0x40)\n      tag_48\n      swap2\n      swap1\n      tag_49\n      jump\t// in\n    tag_48:\n      mload(0x40)\n      dup1\n      swap2\n      sub\n      swap1\n      return\n        /* \"ValueTypes.sol\":243:286  address public addressValue = address(this) */\n    tag_12:\n      tag_50\n      tag_51\n      jump\t// in\n    tag_50:\n      mload(0x40)\n      tag_52\n      swap2\n      swap1\n      tag_53\n      jump\t// in\n    tag_52:\n      mload(0x40)\n      dup1\n      swap2\n      sub\n      swap1\n      return\n        /* \"ValueTypes.sol\":152:178  int public intValue = -123 */\n    tag_15:\n      sload(0x02)\n      dup2\n      jump\t// out\n        /* \"ValueTypes.sol\":424:512  function add(int24 a, int24 b) pure external returns(int24){... */\n    tag_21:\n        /* \"ValueTypes.sol\":477:482  int24 */\n      0x00\n        /* \"ValueTypes.sol\":504:505  b */\n      dup2\n        /* \"ValueTypes.sol\":500:501  a */\n      dup4\n        /* \"ValueTypes.sol\":500:505  a + b */\n      tag_55\n      swap2\n      swap1\n      tag_56\n      jump\t// in\n    tag_55:\n        /* \"ValueTypes.sol\":493:505  return a + b */\n      swap1\n      pop\n        /* \"ValueTypes.sol\":424:512  function add(int24 a, int24 b) pure external returns(int24){... */\n      swap3\n      swap2\n      pop\n      pop\n      jump\t// out\n        /* \"ValueTypes.sol\":384:417  int public maxInt = type(int).max */\n    tag_25:\n      sload(0x06)\n      dup2\n      jump\t// out\n        /* \"ValueTypes.sol\":184:237  string public stringValue = \"This is a string value.\" */\n    tag_28:\n      0x03\n      dup1\n      sload\n      tag_57\n      swap1\n      tag_58\n      jump\t// in\n    tag_57:\n      dup1\n      0x1f\n      add\n      0x20\n      dup1\n      swap2\n      div\n      mul\n      0x20\n      add\n      mload(0x40)\n      swap1\n      dup2\n      add\n      0x40\n      mstore\n      dup1\n      swap3\n      swap2\n      swap1\n      dup2\n      dup2\n      mstore\n      0x20\n      add\n      dup3\n      dup1\n      sload\n      tag_59\n      swap1\n      tag_58\n      jump\t// in\n    tag_59:\n      dup1\n      iszero\n      tag_60\n      jumpi\n      dup1\n      0x1f\n      lt\n      tag_61\n      jumpi\n      0x0100\n      dup1\n      dup4\n      sload\n      div\n      mul\n      dup4\n      mstore\n      swap2\n      0x20\n      add\n      swap2\n      jump(tag_60)\n    tag_61:\n      dup3\n      add\n      swap2\n      swap1\n      0x00\n      mstore\n      keccak256(0x00, 0x20)\n      swap1\n    tag_62:\n      dup2\n      sload\n      dup2\n      mstore\n      swap1\n      0x01\n      add\n      swap1\n      0x20\n      add\n      dup1\n      dup4\n      gt\n      tag_62\n      jumpi\n      dup3\n      swap1\n      sub\n      0x1f\n      and\n      dup3\n      add\n      swap2\n    tag_60:\n      pop\n      pop\n      pop\n      pop\n      pop\n      dup2\n      jump\t// out\n        /* \"ValueTypes.sol\":345:378  int public minInt = type(int).min */\n    tag_32:\n      sload(0x05)\n      dup2\n      jump\t// out\n        /* \"ValueTypes.sol\":84:113  bool public boolValue = false */\n    tag_35:\n      0x00\n      0x00\n      swap1\n      sload\n      swap1\n      0x0100\n      exp\n      swap1\n      div\n      0xff\n      and\n      dup2\n      jump\t// out\n        /* \"ValueTypes.sol\":119:146  uint public uintValue = 123 */\n    tag_39:\n      sload(0x01)\n      dup2\n      jump\t// out\n        /* \"ValueTypes.sol\":518:612  function subtract(int24 a, int24 b) pure external returns(int24) {... */\n    tag_44:\n        /* \"ValueTypes.sol\":576:581  int24 */\n      0x00\n        /* \"ValueTypes.sol\":604:605  b */\n      dup2\n        /* \"ValueTypes.sol\":600:601  a */\n      dup4\n        /* \"ValueTypes.sol\":600:605  a - b */\n      tag_64\n      swap2\n      swap1\n      tag_65\n      jump\t// in\n    tag_64:\n        /* \"ValueTypes.sol\":593:605  return a - b */\n      swap1\n      pop\n        /* \"ValueTypes.sol\":518:612  function subtract(int24 a, int24 b) pure external returns(int24) {... */\n      swap3\n      swap2\n      pop\n      pop\n      jump\t// out\n        /* \"ValueTypes.sol\":292:338  bytes4 public bytes4Value = bytes4(0xDEADBEEF) */\n    tag_47:\n      0x04\n      0x14\n      swap1\n      sload\n      swap1\n      0x0100\n      exp\n      swap1\n      div\n      0xe0\n      shl\n      dup2\n      jump\t// out\n        /* \"ValueTypes.sol\":243:286  address public addressValue = address(this) */\n    tag_51:\n      0x04\n      0x00\n      swap1\n      sload\n      swap1\n      0x0100\n      exp\n      swap1\n      div\n      0xffffffffffffffffffffffffffffffffffffffff\n      and\n      dup2\n      jump\t// out\n        /* \"#utility.yul\":7:83   */\n    tag_66:\n        /* \"#utility.yul\":43:50   */\n      0x00\n        /* \"#utility.yul\":72:77   */\n      dup2\n        /* \"#utility.yul\":61:77   */\n      swap1\n      pop\n        /* \"#utility.yul\":7:83   */\n      swap2\n      swap1\n      pop\n      jump\t// out\n        /* \"#utility.yul\":89:204   */\n    tag_67:\n        /* \"#utility.yul\":174:197   */\n      tag_94\n        /* \"#utility.yul\":191:196   */\n      dup2\n        /* \"#utility.yul\":174:197   */\n      tag_66\n      jump\t// in\n    tag_94:\n        /* \"#utility.yul\":169:172   */\n      dup3\n        /* \"#utility.yul\":162:198   */\n      mstore\n        /* \"#utility.yul\":89:204   */\n      pop\n      pop\n      jump\t// out\n        /* \"#utility.yul\":210:428   */\n    tag_17:\n        /* \"#utility.yul\":301:305   */\n      0x00\n        /* \"#utility.yul\":339:341   */\n      0x20\n        /* \"#utility.yul\":328:337   */\n      dup3\n        /* \"#utility.yul\":324:342   */\n      add\n        /* \"#utility.yul\":316:342   */\n      swap1\n      pop\n        /* \"#utility.yul\":352:421   */\n      tag_96\n        /* \"#utility.yul\":418:419   */\n      0x00\n        /* \"#utility.yul\":407:416   */\n      dup4\n        /* \"#utility.yul\":403:420   */\n      add\n        /* \"#utility.yul\":394:400   */\n      dup5\n        /* \"#utility.yul\":352:421   */\n      tag_67\n      jump\t// in\n    tag_96:\n        /* \"#utility.yul\":210:428   */\n      swap3\n      swap2\n      pop\n      pop\n      jump\t// out\n        /* \"#utility.yul\":515:632   */\n    tag_69:\n        /* \"#utility.yul\":624:625   */\n      0x00\n        /* \"#utility.yul\":621:622   */\n      0x00\n        /* \"#utility.yul\":614:626   */\n      revert\n        /* \"#utility.yul\":761:851   */\n    tag_71:\n        /* \"#utility.yul\":796:803   */\n      0x00\n        /* \"#utility.yul\":839:844   */\n      dup2\n        /* \"#utility.yul\":836:837   */\n      0x02\n        /* \"#utility.yul\":825:845   */\n      signextend\n        /* \"#utility.yul\":814:845   */\n      swap1\n      pop\n        /* \"#utility.yul\":761:851   */\n      swap2\n      swap1\n      pop\n      jump\t// out\n        /* \"#utility.yul\":857:975   */\n    tag_72:\n        /* \"#utility.yul\":928:950   */\n      tag_102\n        /* \"#utility.yul\":944:949   */\n      dup2\n        /* \"#utility.yul\":928:950   */\n      tag_71\n      jump\t// in\n    tag_102:\n        /* \"#utility.yul\":921:926   */\n      dup2\n        /* \"#utility.yul\":918:951   */\n      eq\n        /* \"#utility.yul\":908:969   */\n      tag_103\n      jumpi\n        /* \"#utility.yul\":965:966   */\n      0x00\n        /* \"#utility.yul\":962:963   */\n      0x00\n        /* \"#utility.yul\":955:967   */\n      revert\n        /* \"#utility.yul\":908:969   */\n    tag_103:\n        /* \"#utility.yul\":857:975   */\n      pop\n      jump\t// out\n        /* \"#utility.yul\":981:1116   */\n    tag_73:\n        /* \"#utility.yul\":1025:1030   */\n      0x00\n        /* \"#utility.yul\":1063:1069   */\n      dup2\n        /* \"#utility.yul\":1050:1070   */\n      calldataload\n        /* \"#utility.yul\":1041:1070   */\n      swap1\n      pop\n        /* \"#utility.yul\":1079:1110   */\n      tag_105\n        /* \"#utility.yul\":1104:1109   */\n      dup2\n        /* \"#utility.yul\":1079:1110   */\n      tag_72\n      jump\t// in\n    tag_105:\n        /* \"#utility.yul\":981:1116   */\n      swap3\n      swap2\n      pop\n      pop\n      jump\t// out\n        /* \"#utility.yul\":1122:1588   */\n    tag_20:\n        /* \"#utility.yul\":1186:1192   */\n      0x00\n        /* \"#utility.yul\":1194:1200   */\n      0x00\n        /* \"#utility.yul\":1243:1245   */\n      0x40\n        /* \"#utility.yul\":1231:1240   */\n      dup4\n        /* \"#utility.yul\":1222:1229   */\n      dup6\n        /* \"#utility.yul\":1218:1241   */\n      sub\n        /* \"#utility.yul\":1214:1246   */\n      slt\n        /* \"#utility.yul\":1211:1330   */\n      iszero\n      tag_107\n      jumpi\n        /* \"#utility.yul\":1249:1328   */\n      tag_108\n      tag_69\n      jump\t// in\n    tag_108:\n        /* \"#utility.yul\":1211:1330   */\n    tag_107:\n        /* \"#utility.yul\":1369:1370   */\n      0x00\n        /* \"#utility.yul\":1394:1445   */\n      tag_109\n        /* \"#utility.yul\":1437:1444   */\n      dup6\n        /* \"#utility.yul\":1428:1434   */\n      dup3\n        /* \"#utility.yul\":1417:1426   */\n      dup7\n        /* \"#utility.yul\":1413:1435   */\n      add\n        /* \"#utility.yul\":1394:1445   */\n      tag_73\n      jump\t// in\n    tag_109:\n        /* \"#utility.yul\":1384:1445   */\n      swap3\n      pop\n        /* \"#utility.yul\":1340:1455   */\n      pop\n        /* \"#utility.yul\":1494:1496   */\n      0x20\n        /* \"#utility.yul\":1520:1571   */\n      tag_110\n        /* \"#utility.yul\":1563:1570   */\n      dup6\n        /* \"#utility.yul\":1554:1560   */\n      dup3\n        /* \"#utility.yul\":1543:1552   */\n      dup7\n        /* \"#utility.yul\":1539:1561   */\n      add\n        /* \"#utility.yul\":1520:1571   */\n      tag_73\n      jump\t// in\n    tag_110:\n        /* \"#utility.yul\":1510:1571   */\n      swap2\n      pop\n        /* \"#utility.yul\":1465:1581   */\n      pop\n        /* \"#utility.yul\":1122:1588   */\n      swap3\n      pop\n      swap3\n      swap1\n      pop\n      jump\t// out\n        /* \"#utility.yul\":1594:1706   */\n    tag_74:\n        /* \"#utility.yul\":1677:1699   */\n      tag_112\n        /* \"#utility.yul\":1693:1698   */\n      dup2\n        /* \"#utility.yul\":1677:1699   */\n      tag_71\n      jump\t// in\n    tag_112:\n        /* \"#utility.yul\":1672:1675   */\n      dup3\n        /* \"#utility.yul\":1665:1700   */\n      mstore\n        /* \"#utility.yul\":1594:1706   */\n      pop\n      pop\n      jump\t// out\n        /* \"#utility.yul\":1712:1926   */\n    tag_23:\n        /* \"#utility.yul\":1801:1805   */\n      0x00\n        /* \"#utility.yul\":1839:1841   */\n      0x20\n        /* \"#utility.yul\":1828:1837   */\n      dup3\n        /* \"#utility.yul\":1824:1842   */\n      add\n        /* \"#utility.yul\":1816:1842   */\n      swap1\n      pop\n        /* \"#utility.yul\":1852:1919   */\n      tag_114\n        /* \"#utility.yul\":1916:1917   */\n      0x00\n        /* \"#utility.yul\":1905:1914   */\n      dup4\n        /* \"#utility.yul\":1901:1918   */\n      add\n        /* \"#utility.yul\":1892:1898   */\n      dup5\n        /* \"#utility.yul\":1852:1919   */\n      tag_74\n      jump\t// in\n    tag_114:\n        /* \"#utility.yul\":1712:1926   */\n      swap3\n      swap2\n      pop\n      pop\n      jump\t// out\n        /* \"#utility.yul\":1932:2031   */\n    tag_75:\n        /* \"#utility.yul\":1984:1990   */\n      0x00\n        /* \"#utility.yul\":2018:2023   */\n      dup2\n        /* \"#utility.yul\":2012:2024   */\n      mload\n        /* \"#utility.yul\":2002:2024   */\n      swap1\n      pop\n        /* \"#utility.yul\":1932:2031   */\n      swap2\n      swap1\n      pop\n      jump\t// out\n        /* \"#utility.yul\":2037:2206   */\n    tag_76:\n        /* \"#utility.yul\":2121:2132   */\n      0x00\n        /* \"#utility.yul\":2155:2161   */\n      dup3\n        /* \"#utility.yul\":2150:2153   */\n      dup3\n        /* \"#utility.yul\":2143:2162   */\n      mstore\n        /* \"#utility.yul\":2195:2199   */\n      0x20\n        /* \"#utility.yul\":2190:2193   */\n      dup3\n        /* \"#utility.yul\":2186:2200   */\n      add\n        /* \"#utility.yul\":2171:2200   */\n      swap1\n      pop\n        /* \"#utility.yul\":2037:2206   */\n      swap3\n      swap2\n      pop\n      pop\n      jump\t// out\n        /* \"#utility.yul\":2212:2351   */\n    tag_77:\n        /* \"#utility.yul\":2301:2307   */\n      dup3\n        /* \"#utility.yul\":2296:2299   */\n      dup2\n        /* \"#utility.yul\":2291:2294   */\n      dup4\n        /* \"#utility.yul\":2285:2308   */\n      mcopy\n        /* \"#utility.yul\":2342:2343   */\n      0x00\n        /* \"#utility.yul\":2333:2339   */\n      dup4\n        /* \"#utility.yul\":2328:2331   */\n      dup4\n        /* \"#utility.yul\":2324:2340   */\n      add\n        /* \"#utility.yul\":2317:2344   */\n      mstore\n        /* \"#utility.yul\":2212:2351   */\n      pop\n      pop\n      pop\n      jump\t// out\n        /* \"#utility.yul\":2357:2459   */\n    tag_78:\n        /* \"#utility.yul\":2398:2404   */\n      0x00\n        /* \"#utility.yul\":2449:2451   */\n      0x1f\n        /* \"#utility.yul\":2445:2452   */\n      not\n        /* \"#utility.yul\":2440:2442   */\n      0x1f\n        /* \"#utility.yul\":2433:2438   */\n      dup4\n        /* \"#utility.yul\":2429:2443   */\n      add\n        /* \"#utility.yul\":2425:2453   */\n      and\n        /* \"#utility.yul\":2415:2453   */\n      swap1\n      pop\n        /* \"#utility.yul\":2357:2459   */\n      swap2\n      swap1\n      pop\n      jump\t// out\n        /* \"#utility.yul\":2465:2842   */\n    tag_79:\n        /* \"#utility.yul\":2553:2556   */\n      0x00\n        /* \"#utility.yul\":2581:2620   */\n      tag_120\n        /* \"#utility.yul\":2614:2619   */\n      dup3\n        /* \"#utility.yul\":2581:2620   */\n      tag_75\n      jump\t// in\n    tag_120:\n        /* \"#utility.yul\":2636:2707   */\n      tag_121\n        /* \"#utility.yul\":2700:2706   */\n      dup2\n        /* \"#utility.yul\":2695:2698   */\n      dup6\n        /* \"#utility.yul\":2636:2707   */\n      tag_76\n      jump\t// in\n    tag_121:\n        /* \"#utility.yul\":2629:2707   */\n      swap4\n      pop\n        /* \"#utility.yul\":2716:2781   */\n      tag_122\n        /* \"#utility.yul\":2774:2780   */\n      dup2\n        /* \"#utility.yul\":2769:2772   */\n      dup6\n        /* \"#utility.yul\":2762:2766   */\n      0x20\n        /* \"#utility.yul\":2755:2760   */\n      dup7\n        /* \"#utility.yul\":2751:2767   */\n      add\n        /* \"#utility.yul\":2716:2781   */\n      tag_77\n      jump\t// in\n    tag_122:\n        /* \"#utility.yul\":2806:2835   */\n      tag_123\n        /* \"#utility.yul\":2828:2834   */\n      dup2\n        /* \"#utility.yul\":2806:2835   */\n      tag_78\n      jump\t// in\n    tag_123:\n        /* \"#utility.yul\":2801:2804   */\n      dup5\n        /* \"#utility.yul\":2797:2836   */\n      add\n        /* \"#utility.yul\":2790:2836   */\n      swap2\n      pop\n        /* \"#utility.yul\":2557:2842   */\n      pop\n        /* \"#utility.yul\":2465:2842   */\n      swap3\n      swap2\n      pop\n      pop\n      jump\t// out\n        /* \"#utility.yul\":2848:3161   */\n    tag_30:\n        /* \"#utility.yul\":2961:2965   */\n      0x00\n        /* \"#utility.yul\":2999:3001   */\n      0x20\n        /* \"#utility.yul\":2988:2997   */\n      dup3\n        /* \"#utility.yul\":2984:3002   */\n      add\n        /* \"#utility.yul\":2976:3002   */\n      swap1\n      pop\n        /* \"#utility.yul\":3048:3057   */\n      dup2\n        /* \"#utility.yul\":3042:3046   */\n      dup2\n        /* \"#utility.yul\":3038:3058   */\n      sub\n        /* \"#utility.yul\":3034:3035   */\n      0x00\n        /* \"#utility.yul\":3023:3032   */\n      dup4\n        /* \"#utility.yul\":3019:3036   */\n      add\n        /* \"#utility.yul\":3012:3059   */\n      mstore\n        /* \"#utility.yul\":3076:3154   */\n      tag_125\n        /* \"#utility.yul\":3149:3153   */\n      dup2\n        /* \"#utility.yul\":3140:3146   */\n      dup5\n        /* \"#utility.yul\":3076:3154   */\n      tag_79\n      jump\t// in\n    tag_125:\n        /* \"#utility.yul\":3068:3154   */\n      swap1\n      pop\n        /* \"#utility.yul\":2848:3161   */\n      swap3\n      swap2\n      pop\n      pop\n      jump\t// out\n        /* \"#utility.yul\":3167:3257   */\n    tag_80:\n        /* \"#utility.yul\":3201:3208   */\n      0x00\n        /* \"#utility.yul\":3244:3249   */\n      dup2\n        /* \"#utility.yul\":3237:3250   */\n      iszero\n        /* \"#utility.yul\":3230:3251   */\n      iszero\n        /* \"#utility.yul\":3219:3251   */\n      swap1\n      pop\n        /* \"#utility.yul\":3167:3257   */\n      swap2\n      swap1\n      pop\n      jump\t// out\n        /* \"#utility.yul\":3263:3372   */\n    tag_81:\n        /* \"#utility.yul\":3344:3365   */\n      tag_128\n        /* \"#utility.yul\":3359:3364   */\n      dup2\n        /* \"#utility.yul\":3344:3365   */\n      tag_80\n      jump\t// in\n    tag_128:\n        /* \"#utility.yul\":3339:3342   */\n      dup3\n        /* \"#utility.yul\":3332:3366   */\n      mstore\n        /* \"#utility.yul\":3263:3372   */\n      pop\n      pop\n      jump\t// out\n        /* \"#utility.yul\":3378:3588   */\n    tag_37:\n        /* \"#utility.yul\":3465:3469   */\n      0x00\n        /* \"#utility.yul\":3503:3505   */\n      0x20\n        /* \"#utility.yul\":3492:3501   */\n      dup3\n        /* \"#utility.yul\":3488:3506   */\n      add\n        /* \"#utility.yul\":3480:3506   */\n      swap1\n      pop\n        /* \"#utility.yul\":3516:3581   */\n      tag_130\n        /* \"#utility.yul\":3578:3579   */\n      0x00\n        /* \"#utility.yul\":3567:3576   */\n      dup4\n        /* \"#utility.yul\":3563:3580   */\n      add\n        /* \"#utility.yul\":3554:3560   */\n      dup5\n        /* \"#utility.yul\":3516:3581   */\n      tag_81\n      jump\t// in\n    tag_130:\n        /* \"#utility.yul\":3378:3588   */\n      swap3\n      swap2\n      pop\n      pop\n      jump\t// out\n        /* \"#utility.yul\":3594:3671   */\n    tag_82:\n        /* \"#utility.yul\":3631:3638   */\n      0x00\n        /* \"#utility.yul\":3660:3665   */\n      dup2\n        /* \"#utility.yul\":3649:3665   */\n      swap1\n      pop\n        /* \"#utility.yul\":3594:3671   */\n      swap2\n      swap1\n      pop\n      jump\t// out\n        /* \"#utility.yul\":3677:3795   */\n    tag_83:\n        /* \"#utility.yul\":3764:3788   */\n      tag_133\n        /* \"#utility.yul\":3782:3787   */\n      dup2\n        /* \"#utility.yul\":3764:3788   */\n      tag_82\n      jump\t// in\n    tag_133:\n        /* \"#utility.yul\":3759:3762   */\n      dup3\n        /* \"#utility.yul\":3752:3789   */\n      mstore\n        /* \"#utility.yul\":3677:3795   */\n      pop\n      pop\n      jump\t// out\n        /* \"#utility.yul\":3801:4023   */\n    tag_41:\n        /* \"#utility.yul\":3894:3898   */\n      0x00\n        /* \"#utility.yul\":3932:3934   */\n      0x20\n        /* \"#utility.yul\":3921:3930   */\n      dup3\n        /* \"#utility.yul\":3917:3935   */\n      add\n        /* \"#utility.yul\":3909:3935   */\n      swap1\n      pop\n        /* \"#utility.yul\":3945:4016   */\n      tag_135\n        /* \"#utility.yul\":4013:4014   */\n      0x00\n        /* \"#utility.yul\":4002:4011   */\n      dup4\n        /* \"#utility.yul\":3998:4015   */\n      add\n        /* \"#utility.yul\":3989:3995   */\n      dup5\n        /* \"#utility.yul\":3945:4016   */\n      tag_83\n      jump\t// in\n    tag_135:\n        /* \"#utility.yul\":3801:4023   */\n      swap3\n      swap2\n      pop\n      pop\n      jump\t// out\n        /* \"#utility.yul\":4029:4178   */\n    tag_84:\n        /* \"#utility.yul\":4065:4072   */\n      0x00\n        /* \"#utility.yul\":4105:4171   */\n      0xffffffff00000000000000000000000000000000000000000000000000000000\n        /* \"#utility.yul\":4098:4103   */\n      dup3\n        /* \"#utility.yul\":4094:4172   */\n      and\n        /* \"#utility.yul\":4083:4172   */\n      swap1\n      pop\n        /* \"#utility.yul\":4029:4178   */\n      swap2\n      swap1\n      pop\n      jump\t// out\n        /* \"#utility.yul\":4184:4299   */\n    tag_85:\n        /* \"#utility.yul\":4269:4292   */\n      tag_138\n        /* \"#utility.yul\":4286:4291   */\n      dup2\n        /* \"#utility.yul\":4269:4292   */\n      tag_84\n      jump\t// in\n    tag_138:\n        /* \"#utility.yul\":4264:4267   */\n      dup3\n        /* \"#utility.yul\":4257:4293   */\n      mstore\n        /* \"#utility.yul\":4184:4299   */\n      pop\n      pop\n      jump\t// out\n        /* \"#utility.yul\":4305:4523   */\n    tag_49:\n        /* \"#utility.yul\":4396:4400   */\n      0x00\n        /* \"#utility.yul\":4434:4436   */\n      0x20\n        /* \"#utility.yul\":4423:4432   */\n      dup3\n        /* \"#utility.yul\":4419:4437   */\n      add\n        /* \"#utility.yul\":4411:4437   */\n      swap1\n      pop\n        /* \"#utility.yul\":4447:4516   */\n      tag_140\n        /* \"#utility.yul\":4513:4514   */\n      0x00\n        /* \"#utility.yul\":4502:4511   */\n      dup4\n        /* \"#utility.yul\":4498:4515   */\n      add\n        /* \"#utility.yul\":4489:4495   */\n      dup5\n        /* \"#utility.yul\":4447:4516   */\n      tag_85\n      jump\t// in\n    tag_140:\n        /* \"#utility.yul\":4305:4523   */\n      swap3\n      swap2\n      pop\n      pop\n      jump\t// out\n        /* \"#utility.yul\":4529:4655   */\n    tag_86:\n        /* \"#utility.yul\":4566:4573   */\n      0x00\n        /* \"#utility.yul\":4606:4648   */\n      0xffffffffffffffffffffffffffffffffffffffff\n        /* \"#utility.yul\":4599:4604   */\n      dup3\n        /* \"#utility.yul\":4595:4649   */\n      and\n        /* \"#utility.yul\":4584:4649   */\n      swap1\n      pop\n        /* \"#utility.yul\":4529:4655   */\n      swap2\n      swap1\n      pop\n      jump\t// out\n        /* \"#utility.yul\":4661:4757   */\n    tag_87:\n        /* \"#utility.yul\":4698:4705   */\n      0x00\n        /* \"#utility.yul\":4727:4751   */\n      tag_143\n        /* \"#utility.yul\":4745:4750   */\n      dup3\n        /* \"#utility.yul\":4727:4751   */\n      tag_86\n      jump\t// in\n    tag_143:\n        /* \"#utility.yul\":4716:4751   */\n      swap1\n      pop\n        /* \"#utility.yul\":4661:4757   */\n      swap2\n      swap1\n      pop\n      jump\t// out\n        /* \"#utility.yul\":4763:4881   */\n    tag_88:\n        /* \"#utility.yul\":4850:4874   */\n      tag_145\n        /* \"#utility.yul\":4868:4873   */\n      dup2\n        /* \"#utility.yul\":4850:4874   */\n      tag_87\n      jump\t// in\n    tag_145:\n        /* \"#utility.yul\":4845:4848   */\n      dup3\n        /* \"#utility.yul\":4838:4875   */\n      mstore\n        /* \"#utility.yul\":4763:4881   */\n      pop\n      pop\n      jump\t// out\n        /* \"#utility.yul\":4887:5109   */\n    tag_53:\n        /* \"#utility.yul\":4980:4984   */\n      0x00\n        /* \"#utility.yul\":5018:5020   */\n      0x20\n        /* \"#utility.yul\":5007:5016   */\n      dup3\n        /* \"#utility.yul\":5003:5021   */\n      add\n        /* \"#utility.yul\":4995:5021   */\n      swap1\n      pop\n        /* \"#utility.yul\":5031:5102   */\n      tag_147\n        /* \"#utility.yul\":5099:5100   */\n      0x00\n        /* \"#utility.yul\":5088:5097   */\n      dup4\n        /* \"#utility.yul\":5084:5101   */\n      add\n        /* \"#utility.yul\":5075:5081   */\n      dup5\n        /* \"#utility.yul\":5031:5102   */\n      tag_88\n      jump\t// in\n    tag_147:\n        /* \"#utility.yul\":4887:5109   */\n      swap3\n      swap2\n      pop\n      pop\n      jump\t// out\n        /* \"#utility.yul\":5115:5295   */\n    tag_89:\n        /* \"#utility.yul\":5163:5240   */\n      0x4e487b7100000000000000000000000000000000000000000000000000000000\n        /* \"#utility.yul\":5160:5161   */\n      0x00\n        /* \"#utility.yul\":5153:5241   */\n      mstore\n        /* \"#utility.yul\":5260:5264   */\n      0x11\n        /* \"#utility.yul\":5257:5258   */\n      0x04\n        /* \"#utility.yul\":5250:5265   */\n      mstore\n        /* \"#utility.yul\":5284:5288   */\n      0x24\n        /* \"#utility.yul\":5281:5282   */\n      0x00\n        /* \"#utility.yul\":5274:5289   */\n      revert\n        /* \"#utility.yul\":5301:5610   */\n    tag_56:\n        /* \"#utility.yul\":5339:5342   */\n      0x00\n        /* \"#utility.yul\":5358:5376   */\n      tag_150\n        /* \"#utility.yul\":5374:5375   */\n      dup3\n        /* \"#utility.yul\":5358:5376   */\n      tag_71\n      jump\t// in\n    tag_150:\n        /* \"#utility.yul\":5353:5376   */\n      swap2\n      pop\n        /* \"#utility.yul\":5390:5408   */\n      tag_151\n        /* \"#utility.yul\":5406:5407   */\n      dup4\n        /* \"#utility.yul\":5390:5408   */\n      tag_71\n      jump\t// in\n    tag_151:\n        /* \"#utility.yul\":5385:5408   */\n      swap3\n      pop\n        /* \"#utility.yul\":5431:5432   */\n      dup3\n        /* \"#utility.yul\":5428:5429   */\n      dup3\n        /* \"#utility.yul\":5424:5433   */\n      add\n        /* \"#utility.yul\":5417:5433   */\n      swap1\n      pop\n        /* \"#utility.yul\":5503:5569   */\n      0xffffffffffffffffffffffffffffffffffffffffffffffffffffffffff800000\n        /* \"#utility.yul\":5498:5501   */\n      dup2\n        /* \"#utility.yul\":5494:5570   */\n      slt\n        /* \"#utility.yul\":5471:5479   */\n      0x7fffff\n        /* \"#utility.yul\":5466:5469   */\n      dup3\n        /* \"#utility.yul\":5462:5480   */\n      sgt\n        /* \"#utility.yul\":5446:5580   */\n      or\n        /* \"#utility.yul\":5443:5603   */\n      iszero\n      tag_152\n      jumpi\n        /* \"#utility.yul\":5583:5601   */\n      tag_153\n      tag_89\n      jump\t// in\n    tag_153:\n        /* \"#utility.yul\":5443:5603   */\n    tag_152:\n        /* \"#utility.yul\":5301:5610   */\n      swap3\n      swap2\n      pop\n      pop\n      jump\t// out\n        /* \"#utility.yul\":5616:5796   */\n    tag_90:\n        /* \"#utility.yul\":5664:5741   */\n      0x4e487b7100000000000000000000000000000000000000000000000000000000\n        /* \"#utility.yul\":5661:5662   */\n      0x00\n        /* \"#utility.yul\":5654:5742   */\n      mstore\n        /* \"#utility.yul\":5761:5765   */\n      0x22\n        /* \"#utility.yul\":5758:5759   */\n      0x04\n        /* \"#utility.yul\":5751:5766   */\n      mstore\n        /* \"#utility.yul\":5785:5789   */\n      0x24\n        /* \"#utility.yul\":5782:5783   */\n      0x00\n        /* \"#utility.yul\":5775:5790   */\n      revert\n        /* \"#utility.yul\":5802:6122   */\n    tag_58:\n        /* \"#utility.yul\":5846:5852   */\n      0x00\n        /* \"#utility.yul\":5883:5884   */\n      0x02\n        /* \"#utility.yul\":5877:5881   */\n      dup3\n        /* \"#utility.yul\":5873:5885   */\n      div\n        /* \"#utility.yul\":5863:5885   */\n      swap1\n      pop\n        /* \"#utility.yul\":5930:5931   */\n      0x01\n        /* \"#utility.yul\":5924:5928   */\n      dup3\n        /* \"#utility.yul\":5920:5932   */\n      and\n        /* \"#utility.yul\":5951:5969   */\n      dup1\n        /* \"#utility.yul\":5941:6022   */\n      tag_156\n      jumpi\n        /* \"#utility.yul\":6007:6011   */\n      0x7f\n        /* \"#utility.yul\":5999:6005   */\n      dup3\n        /* \"#utility.yul\":5995:6012   */\n      and\n        /* \"#utility.yul\":5985:6012   */\n      swap2\n      pop\n        /* \"#utility.yul\":5941:6022   */\n    tag_156:\n        /* \"#utility.yul\":6069:6071   */\n      0x20\n        /* \"#utility.yul\":6061:6067   */\n      dup3\n        /* \"#utility.yul\":6058:6072   */\n      lt\n        /* \"#utility.yul\":6038:6056   */\n      dup2\n        /* \"#utility.yul\":6035:6073   */\n      sub\n        /* \"#utility.yul\":6032:6116   */\n      tag_157\n      jumpi\n        /* \"#utility.yul\":6088:6106   */\n      tag_158\n      tag_90\n      jump\t// in\n    tag_158:\n        /* \"#utility.yul\":6032:6116   */\n    tag_157:\n        /* \"#utility.yul\":5853:6122   */\n      pop\n        /* \"#utility.yul\":5802:6122   */\n      swap2\n      swap1\n      pop\n      jump\t// out\n        /* \"#utility.yul\":6128:6441   */\n    tag_65:\n        /* \"#utility.yul\":6166:6170   */\n      0x00\n        /* \"#utility.yul\":6186:6204   */\n      tag_160\n        /* \"#utility.yul\":6202:6203   */\n      dup3\n        /* \"#utility.yul\":6186:6204   */\n      tag_71\n      jump\t// in\n    tag_160:\n        /* \"#utility.yul\":6181:6204   */\n      swap2\n      pop\n        /* \"#utility.yul\":6218:6236   */\n      tag_161\n        /* \"#utility.yul\":6234:6235   */\n      dup4\n        /* \"#utility.yul\":6218:6236   */\n      tag_71\n      jump\t// in\n    tag_161:\n        /* \"#utility.yul\":6213:6236   */\n      swap3\n      pop\n        /* \"#utility.yul\":6260:6261   */\n      dup3\n        /* \"#utility.yul\":6257:6258   */\n      dup3\n        /* \"#utility.yul\":6253:6262   */\n      sub\n        /* \"#utility.yul\":6245:6262   */\n      swap1\n      pop\n        /* \"#utility.yul\":6392:6400   */\n      0x7fffff\n        /* \"#utility.yul\":6386:6390   */\n      dup2\n        /* \"#utility.yul\":6382:6401   */\n      sgt\n        /* \"#utility.yul\":6301:6367   */\n      0xffffffffffffffffffffffffffffffffffffffffffffffffffffffffff800000\n        /* \"#utility.yul\":6295:6299   */\n      dup3\n        /* \"#utility.yul\":6291:6368   */\n      slt\n        /* \"#utility.yul\":6275:6411   */\n      or\n        /* \"#utility.yul\":6272:6434   */\n      iszero\n      tag_162\n      jumpi\n        /* \"#utility.yul\":6414:6432   */\n      tag_163\n      tag_89\n      jump\t// in\n    tag_163:\n        /* \"#utility.yul\":6272:6434   */\n    tag_162:\n        /* \"#utility.yul\":6128:6441   */\n      swap3\n      swap2\n      pop\n      pop\n      jump\t// out\n\n    auxdata: 0xa26469706673582212208141316d30b3d5282c70443c88660896dcfda6fad391246635628128b25c048a64736f6c634300081e0033\n}\n",
				"bytecode": {
					"linkReferences": {},
					"object": "60806040525f5f5f6101000a81548160ff021916908315150217905550607b6001557fffffffffffffffffffffffffffffffffffffffffffffffffffffffffffffff856002556040518060400160405280601781526020017f54686973206973206120737472696e672076616c75652e000000000000000000815250600390816100899190610385565b503060045f6101000a81548173ffffffffffffffffffffffffffffffffffffffff021916908373ffffffffffffffffffffffffffffffffffffffff16021790555063deadbeef60e01b600460146101000a81548163ffffffff021916908360e01c02179055507f80000000000000000000000000000000000000000000000000000000000000006005557f7fffffffffffffffffffffffffffffffffffffffffffffffffffffffffffffff600655348015610142575f5ffd5b50610454565b5f81519050919050565b7f4e487b71000000000000000000000000000000000000000000000000000000005f52604160045260245ffd5b7f4e487b71000000000000000000000000000000000000000000000000000000005f52602260045260245ffd5b5f60028204905060018216806101c357607f821691505b6020821081036101d6576101d561017f565b5b50919050565b5f819050815f5260205f209050919050565b5f6020601f8301049050919050565b5f82821b905092915050565b5f600883026102387fffffffffffffffffffffffffffffffffffffffffffffffffffffffffffffffff826101fd565b61024286836101fd565b95508019841693508086168417925050509392505050565b5f819050919050565b5f819050919050565b5f61028661028161027c8461025a565b610263565b61025a565b9050919050565b5f819050919050565b61029f8361026c565b6102b36102ab8261028d565b848454610209565b825550505050565b5f5f905090565b6102ca6102bb565b6102d5818484610296565b505050565b5b818110156102f8576102ed5f826102c2565b6001810190506102db565b5050565b601f82111561033d5761030e816101dc565b610317846101ee565b81016020851015610326578190505b61033a610332856101ee565b8301826102da565b50505b505050565b5f82821c905092915050565b5f61035d5f1984600802610342565b1980831691505092915050565b5f610375838361034e565b9150826002028217905092915050565b61038e82610148565b67ffffffffffffffff8111156103a7576103a6610152565b5b6103b182546101ac565b6103bc8282856102fc565b5f60209050601f8311600181146103ed575f84156103db578287015190505b6103e5858261036a565b86555061044c565b601f1984166103fb866101dc565b5f5b82811015610422578489015182556001820191506020850194506020810190506103fd565b8683101561043f578489015161043b601f89168261034e565b8355505b6001600288020188555050505b505050505050565b6106eb806104615f395ff3fe608060405234801561000f575f5ffd5b506004361061009c575f3560e01c806393af578d1161006457806393af578d14610148578063988817b014610166578063b7c8b16614610184578063e0f82151146101b4578063e1d16b83146101d25761009c565b80630c4dae88146100a05780634a9fb828146100be5780637a4c2571146100ee5780637dc939291461010c5780637e4e14cc1461012a575b5f5ffd5b6100a86101f0565b6040516100b5919061031f565b60405180910390f35b6100d860048036038101906100d39190610372565b6101f6565b6040516100e591906103bf565b60405180910390f35b6100f661020b565b604051610103919061031f565b60405180910390f35b610114610211565b6040516101219190610448565b60405180910390f35b61013261029d565b60405161013f919061031f565b60405180910390f35b6101506102a3565b60405161015d9190610482565b60405180910390f35b61016e6102b4565b60405161017b91906104b3565b60405180910390f35b61019e60048036038101906101999190610372565b6102ba565b6040516101ab91906103bf565b60405180910390f35b6101bc6102cf565b6040516101c99190610506565b60405180910390f35b6101da6102e2565b6040516101e7919061055e565b60405180910390f35b60025481565b5f818361020391906105a4565b905092915050565b60065481565b6003805461021e9061062b565b80601f016020809104026020016040519081016040528092919081815260200182805461024a9061062b565b80156102955780601f1061026c57610100808354040283529160200191610295565b820191905f5260205f20905b81548152906001019060200180831161027857829003601f168201915b505050505081565b60055481565b5f5f9054906101000a900460ff1681565b60015481565b5f81836102c7919061065b565b905092915050565b600460149054906101000a900460e01b81565b60045f9054906101000a900473ffffffffffffffffffffffffffffffffffffffff1681565b5f819050919050565b61031981610307565b82525050565b5f6020820190506103325f830184610310565b92915050565b5f5ffd5b5f8160020b9050919050565b6103518161033c565b811461035b575f5ffd5b50565b5f8135905061036c81610348565b92915050565b5f5f6040838503121561038857610387610338565b5b5f6103958582860161035e565b92505060206103a68582860161035e565b9150509250929050565b6103b98161033c565b82525050565b5f6020820190506103d25f8301846103b0565b92915050565b5f81519050919050565b5f82825260208201905092915050565b8281835e5f83830152505050565b5f601f19601f8301169050919050565b5f61041a826103d8565b61042481856103e2565b93506104348185602086016103f2565b61043d81610400565b840191505092915050565b5f6020820190508181035f8301526104608184610410565b905092915050565b5f8115159050919050565b61047c81610468565b82525050565b5f6020820190506104955f830184610473565b92915050565b5f819050919050565b6104ad8161049b565b82525050565b5f6020820190506104c65f8301846104a4565b92915050565b5f7fffffffff0000000000000000000000000000000000000000000000000000000082169050919050565b610500816104cc565b82525050565b5f6020820190506105195f8301846104f7565b92915050565b5f73ffffffffffffffffffffffffffffffffffffffff82169050919050565b5f6105488261051f565b9050919050565b6105588161053e565b82525050565b5f6020820190506105715f83018461054f565b92915050565b7f4e487b71000000000000000000000000000000000000000000000000000000005f52601160045260245ffd5b5f6105ae8261033c565b91506105b98361033c565b925082820190507fffffffffffffffffffffffffffffffffffffffffffffffffffffffffff8000008112627fffff821317156105f8576105f7610577565b5b92915050565b7f4e487b71000000000000000000000000000000000000000000000000000000005f52602260045260245ffd5b5f600282049050600182168061064257607f821691505b602082108103610655576106546105fe565b5b50919050565b5f6106658261033c565b91506106708361033c565b92508282039050627fffff81137fffffffffffffffffffffffffffffffffffffffffffffffffffffffffff800000821217156106af576106ae610577565b5b9291505056fea26469706673582212208141316d30b3d5282c70443c88660896dcfda6fad391246635628128b25c048a64736f6c634300081e0033",
					"opcodes": "PUSH1 0x80 PUSH1 0x40 MSTORE PUSH0 PUSH0 PUSH0 PUSH2 0x100 EXP DUP2 SLOAD DUP2 PUSH1 0xFF MUL NOT AND SWAP1 DUP4 ISZERO ISZERO MUL OR SWAP1 SSTORE POP PUSH1 0x7B PUSH1 0x1 SSTORE PUSH32 0xFFFFFFFFFFFFFFFFFFFFFFFFFFFFFFFFFFFFFFFFFFFFFFFFFFFFFFFFFFFFFF85 PUSH1 0x2 SSTORE PUSH1 0x40 MLOAD DUP1 PUSH1 0x40 ADD PUSH1 0x40 MSTORE DUP1 PUSH1 0x17 DUP2 MSTORE PUSH1 0x20 ADD PUSH32 0x54686973206973206120737472696E672076616C75652E000000000000000000 DUP2 MSTORE POP PUSH1 0x3 SWAP1 DUP2 PUSH2 0x89 SWAP2 SWAP1 PUSH2 0x385 JUMP JUMPDEST POP ADDRESS PUSH1 0x4 PUSH0 PUSH2 0x100 EXP DUP2 SLOAD DUP2 PUSH20 0xFFFFFFFFFFFFFFFFFFFFFFFFFFFFFFFFFFFFFFFF MUL NOT AND SWAP1 DUP4 PUSH20 0xFFFFFFFFFFFFFFFFFFFFFFFFFFFFFFFFFFFFFFFF AND MUL OR SWAP1 SSTORE POP PUSH4 0xDEADBEEF PUSH1 0xE0 SHL PUSH1 0x4 PUSH1 0x14 PUSH2 0x100 EXP DUP2 SLOAD DUP2 PUSH4 0xFFFFFFFF MUL NOT AND SWAP1 DUP4 PUSH1 0xE0 SHR MUL OR SWAP1 SSTORE POP PUSH32 0x8000000000000000000000000000000000000000000000000000000000000000 PUSH1 0x5 SSTORE PUSH32 0x7FFFFFFFFFFFFFFFFFFFFFFFFFFFFFFFFFFFFFFFFFFFFFFFFFFFFFFFFFFFFFFF PUSH1 0x6 SSTORE CALLVALUE DUP1 ISZERO PUSH2 0x142 JUMPI PUSH0 PUSH0 REVERT JUMPDEST POP PUSH2 0x454 JUMP JUMPDEST PUSH0 DUP2 MLOAD SWAP1 POP SWAP2 SWAP1 POP JUMP JUMPDEST PUSH32 0x4E487B7100000000000000000000000000000000000000000000000000000000 PUSH0 MSTORE PUSH1 0x41 PUSH1 0x4 MSTORE PUSH1 0x24 PUSH0 REVERT JUMPDEST PUSH32 0x4E487B7100000000000000000000000000000000000000000000000000000000 PUSH0 MSTORE PUSH1 0x22 PUSH1 0x4 MSTORE PUSH1 0x24 PUSH0 REVERT JUMPDEST PUSH0 PUSH1 0x2 DUP3 DIV SWAP1 POP PUSH1 0x1 DUP3 AND DUP1 PUSH2 0x1C3 JUMPI PUSH1 0x7F DUP3 AND SWAP2 POP JUMPDEST PUSH1 0x20 DUP3 LT DUP2 SUB PUSH2 0x1D6 JUMPI PUSH2 0x1D5 PUSH2 0x17F JUMP JUMPDEST JUMPDEST POP SWAP2 SWAP1 POP JUMP JUMPDEST PUSH0 DUP2 SWAP1 POP DUP2 PUSH0 MSTORE PUSH1 0x20 PUSH0 KECCAK256 SWAP1 POP SWAP2 SWAP1 POP JUMP JUMPDEST PUSH0 PUSH1 0x20 PUSH1 0x1F DUP4 ADD DIV SWAP1 POP SWAP2 SWAP1 POP JUMP JUMPDEST PUSH0 DUP3 DUP3 SHL SWAP1 POP SWAP3 SWAP2 POP POP JUMP JUMPDEST PUSH0 PUSH1 0x8 DUP4 MUL PUSH2 0x238 PUSH32 0xFFFFFFFFFFFFFFFFFFFFFFFFFFFFFFFFFFFFFFFFFFFFFFFFFFFFFFFFFFFFFFFF DUP3 PUSH2 0x1FD JUMP JUMPDEST PUSH2 0x242 DUP7 DUP4 PUSH2 0x1FD JUMP JUMPDEST SWAP6 POP DUP1 NOT DUP5 AND SWAP4 POP DUP1 DUP7 AND DUP5 OR SWAP3 POP POP POP SWAP4 SWAP3 POP POP POP JUMP JUMPDEST PUSH0 DUP2 SWAP1 POP SWAP2 SWAP1 POP JUMP JUMPDEST PUSH0 DUP2 SWAP1 POP SWAP2 SWAP1 POP JUMP JUMPDEST PUSH0 PUSH2 0x286 PUSH2 0x281 PUSH2 0x27C DUP5 PUSH2 0x25A JUMP JUMPDEST PUSH2 0x263 JUMP JUMPDEST PUSH2 0x25A JUMP JUMPDEST SWAP1 POP SWAP2 SWAP1 POP JUMP JUMPDEST PUSH0 DUP2 SWAP1 POP SWAP2 SWAP1 POP JUMP JUMPDEST PUSH2 0x29F DUP4 PUSH2 0x26C JUMP JUMPDEST PUSH2 0x2B3 PUSH2 0x2AB DUP3 PUSH2 0x28D JUMP JUMPDEST DUP5 DUP5 SLOAD PUSH2 0x209 JUMP JUMPDEST DUP3 SSTORE POP POP POP POP JUMP JUMPDEST PUSH0 PUSH0 SWAP1 POP SWAP1 JUMP JUMPDEST PUSH2 0x2CA PUSH2 0x2BB JUMP JUMPDEST PUSH2 0x2D5 DUP2 DUP5 DUP5 PUSH2 0x296 JUMP JUMPDEST POP POP POP JUMP JUMPDEST JUMPDEST DUP2 DUP2 LT ISZERO PUSH2 0x2F8 JUMPI PUSH2 0x2ED PUSH0 DUP3 PUSH2 0x2C2 JUMP JUMPDEST PUSH1 0x1 DUP2 ADD SWAP1 POP PUSH2 0x2DB JUMP JUMPDEST POP POP JUMP JUMPDEST PUSH1 0x1F DUP3 GT ISZERO PUSH2 0x33D JUMPI PUSH2 0x30E DUP2 PUSH2 0x1DC JUMP JUMPDEST PUSH2 0x317 DUP5 PUSH2 0x1EE JUMP JUMPDEST DUP2 ADD PUSH1 0x20 DUP6 LT ISZERO PUSH2 0x326 JUMPI DUP2 SWAP1 POP JUMPDEST PUSH2 0x33A PUSH2 0x332 DUP6 PUSH2 0x1EE JUMP JUMPDEST DUP4 ADD DUP3 PUSH2 0x2DA JUMP JUMPDEST POP POP JUMPDEST POP POP POP JUMP JUMPDEST PUSH0 DUP3 DUP3 SHR SWAP1 POP SWAP3 SWAP2 POP POP JUMP JUMPDEST PUSH0 PUSH2 0x35D PUSH0 NOT DUP5 PUSH1 0x8 MUL PUSH2 0x342 JUMP JUMPDEST NOT DUP1 DUP4 AND SWAP2 POP POP SWAP3 SWAP2 POP POP JUMP JUMPDEST PUSH0 PUSH2 0x375 DUP4 DUP4 PUSH2 0x34E JUMP JUMPDEST SWAP2 POP DUP3 PUSH1 0x2 MUL DUP3 OR SWAP1 POP SWAP3 SWAP2 POP POP JUMP JUMPDEST PUSH2 0x38E DUP3 PUSH2 0x148 JUMP JUMPDEST PUSH8 0xFFFFFFFFFFFFFFFF DUP2 GT ISZERO PUSH2 0x3A7 JUMPI PUSH2 0x3A6 PUSH2 0x152 JUMP JUMPDEST JUMPDEST PUSH2 0x3B1 DUP3 SLOAD PUSH2 0x1AC JUMP JUMPDEST PUSH2 0x3BC DUP3 DUP3 DUP6 PUSH2 0x2FC JUMP JUMPDEST PUSH0 PUSH1 0x20 SWAP1 POP PUSH1 0x1F DUP4 GT PUSH1 0x1 DUP2 EQ PUSH2 0x3ED JUMPI PUSH0 DUP5 ISZERO PUSH2 0x3DB JUMPI DUP3 DUP8 ADD MLOAD SWAP1 POP JUMPDEST PUSH2 0x3E5 DUP6 DUP3 PUSH2 0x36A JUMP JUMPDEST DUP7 SSTORE POP PUSH2 0x44C JUMP JUMPDEST PUSH1 0x1F NOT DUP5 AND PUSH2 0x3FB DUP7 PUSH2 0x1DC JUMP JUMPDEST PUSH0 JUMPDEST DUP3 DUP2 LT ISZERO PUSH2 0x422 JUMPI DUP5 DUP10 ADD MLOAD DUP3 SSTORE PUSH1 0x1 DUP3 ADD SWAP2 POP PUSH1 0x20 DUP6 ADD SWAP5 POP PUSH1 0x20 DUP2 ADD SWAP1 POP PUSH2 0x3FD JUMP JUMPDEST DUP7 DUP4 LT ISZERO PUSH2 0x43F JUMPI DUP5 DUP10 ADD MLOAD PUSH2 0x43B PUSH1 0x1F DUP10 AND DUP3 PUSH2 0x34E JUMP JUMPDEST DUP4 SSTORE POP JUMPDEST PUSH1 0x1 PUSH1 0x2 DUP9 MUL ADD DUP9 SSTORE POP POP POP JUMPDEST POP POP POP POP POP POP JUMP JUMPDEST PUSH2 0x6EB DUP1 PUSH2 0x461 PUSH0 CODECOPY PUSH0 RETURN INVALID PUSH1 0x80 PUSH1 0x40 MSTORE CALLVALUE DUP1 ISZERO PUSH2 0xF JUMPI PUSH0 PUSH0 REVERT JUMPDEST POP PUSH1 0x4 CALLDATASIZE LT PUSH2 0x9C JUMPI PUSH0 CALLDATALOAD PUSH1 0xE0 SHR DUP1 PUSH4 0x93AF578D GT PUSH2 0x64 JUMPI DUP1 PUSH4 0x93AF578D EQ PUSH2 0x148 JUMPI DUP1 PUSH4 0x988817B0 EQ PUSH2 0x166 JUMPI DUP1 PUSH4 0xB7C8B166 EQ PUSH2 0x184 JUMPI DUP1 PUSH4 0xE0F82151 EQ PUSH2 0x1B4 JUMPI DUP1 PUSH4 0xE1D16B83 EQ PUSH2 0x1D2 JUMPI PUSH2 0x9C JUMP JUMPDEST DUP1 PUSH4 0xC4DAE88 EQ PUSH2 0xA0 JUMPI DUP1 PUSH4 0x4A9FB828 EQ PUSH2 0xBE JUMPI DUP1 PUSH4 0x7A4C2571 EQ PUSH2 0xEE JUMPI DUP1 PUSH4 0x7DC93929 EQ PUSH2 0x10C JUMPI DUP1 PUSH4 0x7E4E14CC EQ PUSH2 0x12A JUMPI JUMPDEST PUSH0 PUSH0 REVERT JUMPDEST PUSH2 0xA8 PUSH2 0x1F0 JUMP JUMPDEST PUSH1 0x40 MLOAD PUSH2 0xB5 SWAP2 SWAP1 PUSH2 0x31F JUMP JUMPDEST PUSH1 0x40 MLOAD DUP1 SWAP2 SUB SWAP1 RETURN JUMPDEST PUSH2 0xD8 PUSH1 0x4 DUP1 CALLDATASIZE SUB DUP2 ADD SWAP1 PUSH2 0xD3 SWAP2 SWAP1 PUSH2 0x372 JUMP JUMPDEST PUSH2 0x1F6 JUMP JUMPDEST PUSH1 0x40 MLOAD PUSH2 0xE5 SWAP2 SWAP1 PUSH2 0x3BF JUMP JUMPDEST PUSH1 0x40 MLOAD DUP1 SWAP2 SUB SWAP1 RETURN JUMPDEST PUSH2 0xF6 PUSH2 0x20B JUMP JUMPDEST PUSH1 0x40 MLOAD PUSH2 0x103 SWAP2 SWAP1 PUSH2 0x31F JUMP JUMPDEST PUSH1 0x40 MLOAD DUP1 SWAP2 SUB SWAP1 RETURN JUMPDEST PUSH2 0x114 PUSH2 0x211 JUMP JUMPDEST PUSH1 0x40 MLOAD PUSH2 0x121 SWAP2 SWAP1 PUSH2 0x448 JUMP JUMPDEST PUSH1 0x40 MLOAD DUP1 SWAP2 SUB SWAP1 RETURN JUMPDEST PUSH2 0x132 PUSH2 0x29D JUMP JUMPDEST PUSH1 0x40 MLOAD PUSH2 0x13F SWAP2 SWAP1 PUSH2 0x31F JUMP JUMPDEST PUSH1 0x40 MLOAD DUP1 SWAP2 SUB SWAP1 RETURN JUMPDEST PUSH2 0x150 PUSH2 0x2A3 JUMP JUMPDEST PUSH1 0x40 MLOAD PUSH2 0x15D SWAP2 SWAP1 PUSH2 0x482 JUMP JUMPDEST PUSH1 0x40 MLOAD DUP1 SWAP2 SUB SWAP1 RETURN JUMPDEST PUSH2 0x16E PUSH2 0x2B4 JUMP JUMPDEST PUSH1 0x40 MLOAD PUSH2 0x17B SWAP2 SWAP1 PUSH2 0x4B3 JUMP JUMPDEST PUSH1 0x40 MLOAD DUP1 SWAP2 SUB SWAP1 RETURN JUMPDEST PUSH2 0x19E PUSH1 0x4 DUP1 CALLDATASIZE SUB DUP2 ADD SWAP1 PUSH2 0x199 SWAP2 SWAP1 PUSH2 0x372 JUMP JUMPDEST PUSH2 0x2BA JUMP JUMPDEST PUSH1 0x40 MLOAD PUSH2 0x1AB SWAP2 SWAP1 PUSH2 0x3BF JUMP JUMPDEST PUSH1 0x40 MLOAD DUP1 SWAP2 SUB SWAP1 RETURN JUMPDEST PUSH2 0x1BC PUSH2 0x2CF JUMP JUMPDEST PUSH1 0x40 MLOAD PUSH2 0x1C9 SWAP2 SWAP1 PUSH2 0x506 JUMP JUMPDEST PUSH1 0x40 MLOAD DUP1 SWAP2 SUB SWAP1 RETURN JUMPDEST PUSH2 0x1DA PUSH2 0x2E2 JUMP JUMPDEST PUSH1 0x40 MLOAD PUSH2 0x1E7 SWAP2 SWAP1 PUSH2 0x55E JUMP JUMPDEST PUSH1 0x40 MLOAD DUP1 SWAP2 SUB SWAP1 RETURN JUMPDEST PUSH1 0x2 SLOAD DUP2 JUMP JUMPDEST PUSH0 DUP2 DUP4 PUSH2 0x203 SWAP2 SWAP1 PUSH2 0x5A4 JUMP JUMPDEST SWAP1 POP SWAP3 SWAP2 POP POP JUMP JUMPDEST PUSH1 0x6 SLOAD DUP2 JUMP JUMPDEST PUSH1 0x3 DUP1 SLOAD PUSH2 0x21E SWAP1 PUSH2 0x62B JUMP JUMPDEST DUP1 PUSH1 0x1F ADD PUSH1 0x20 DUP1 SWAP2 DIV MUL PUSH1 0x20 ADD PUSH1 0x40 MLOAD SWAP1 DUP2 ADD PUSH1 0x40 MSTORE DUP1 SWAP3 SWAP2 SWAP1 DUP2 DUP2 MSTORE PUSH1 0x20 ADD DUP3 DUP1 SLOAD PUSH2 0x24A SWAP1 PUSH2 0x62B JUMP JUMPDEST DUP1 ISZERO PUSH2 0x295 JUMPI DUP1 PUSH1 0x1F LT PUSH2 0x26C JUMPI PUSH2 0x100 DUP1 DUP4 SLOAD DIV MUL DUP4 MSTORE SWAP2 PUSH1 0x20 ADD SWAP2 PUSH2 0x295 JUMP JUMPDEST DUP3 ADD SWAP2 SWAP1 PUSH0 MSTORE PUSH1 0x20 PUSH0 KECCAK256 SWAP1 JUMPDEST DUP2 SLOAD DUP2 MSTORE SWAP1 PUSH1 0x1 ADD SWAP1 PUSH1 0x20 ADD DUP1 DUP4 GT PUSH2 0x278 JUMPI DUP3 SWAP1 SUB PUSH1 0x1F AND DUP3 ADD SWAP2 JUMPDEST POP POP POP POP POP DUP2 JUMP JUMPDEST PUSH1 0x5 SLOAD DUP2 JUMP JUMPDEST PUSH0 PUSH0 SWAP1 SLOAD SWAP1 PUSH2 0x100 EXP SWAP1 DIV PUSH1 0xFF AND DUP2 JUMP JUMPDEST PUSH1 0x1 SLOAD DUP2 JUMP JUMPDEST PUSH0 DUP2 DUP4 PUSH2 0x2C7 SWAP2 SWAP1 PUSH2 0x65B JUMP JUMPDEST SWAP1 POP SWAP3 SWAP2 POP POP JUMP JUMPDEST PUSH1 0x4 PUSH1 0x14 SWAP1 SLOAD SWAP1 PUSH2 0x100 EXP SWAP1 DIV PUSH1 0xE0 SHL DUP2 JUMP JUMPDEST PUSH1 0x4 PUSH0 SWAP1 SLOAD SWAP1 PUSH2 0x100 EXP SWAP1 DIV PUSH20 0xFFFFFFFFFFFFFFFFFFFFFFFFFFFFFFFFFFFFFFFF AND DUP2 JUMP JUMPDEST PUSH0 DUP2 SWAP1 POP SWAP2 SWAP1 POP JUMP JUMPDEST PUSH2 0x319 DUP2 PUSH2 0x307 JUMP JUMPDEST DUP3 MSTORE POP POP JUMP JUMPDEST PUSH0 PUSH1 0x20 DUP3 ADD SWAP1 POP PUSH2 0x332 PUSH0 DUP4 ADD DUP5 PUSH2 0x310 JUMP JUMPDEST SWAP3 SWAP2 POP POP JUMP JUMPDEST PUSH0 PUSH0 REVERT JUMPDEST PUSH0 DUP2 PUSH1 0x2 SIGNEXTEND SWAP1 POP SWAP2 SWAP1 POP JUMP JUMPDEST PUSH2 0x351 DUP2 PUSH2 0x33C JUMP JUMPDEST DUP2 EQ PUSH2 0x35B JUMPI PUSH0 PUSH0 REVERT JUMPDEST POP JUMP JUMPDEST PUSH0 DUP2 CALLDATALOAD SWAP1 POP PUSH2 0x36C DUP2 PUSH2 0x348 JUMP JUMPDEST SWAP3 SWAP2 POP POP JUMP JUMPDEST PUSH0 PUSH0 PUSH1 0x40 DUP4 DUP6 SUB SLT ISZERO PUSH2 0x388 JUMPI PUSH2 0x387 PUSH2 0x338 JUMP JUMPDEST JUMPDEST PUSH0 PUSH2 0x395 DUP6 DUP3 DUP7 ADD PUSH2 0x35E JUMP JUMPDEST SWAP3 POP POP PUSH1 0x20 PUSH2 0x3A6 DUP6 DUP3 DUP7 ADD PUSH2 0x35E JUMP JUMPDEST SWAP2 POP POP SWAP3 POP SWAP3 SWAP1 POP JUMP JUMPDEST PUSH2 0x3B9 DUP2 PUSH2 0x33C JUMP JUMPDEST DUP3 MSTORE POP POP JUMP JUMPDEST PUSH0 PUSH1 0x20 DUP3 ADD SWAP1 POP PUSH2 0x3D2 PUSH0 DUP4 ADD DUP5 PUSH2 0x3B0 JUMP JUMPDEST SWAP3 SWAP2 POP POP JUMP JUMPDEST PUSH0 DUP2 MLOAD SWAP1 POP SWAP2 SWAP1 POP JUMP JUMPDEST PUSH0 DUP3 DUP3 MSTORE PUSH1 0x20 DUP3 ADD SWAP1 POP SWAP3 SWAP2 POP POP JUMP JUMPDEST DUP3 DUP2 DUP4 MCOPY PUSH0 DUP4 DUP4 ADD MSTORE POP POP POP JUMP JUMPDEST PUSH0 PUSH1 0x1F NOT PUSH1 0x1F DUP4 ADD AND SWAP1 POP SWAP2 SWAP1 POP JUMP JUMPDEST PUSH0 PUSH2 0x41A DUP3 PUSH2 0x3D8 JUMP JUMPDEST PUSH2 0x424 DUP2 DUP6 PUSH2 0x3E2 JUMP JUMPDEST SWAP4 POP PUSH2 0x434 DUP2 DUP6 PUSH1 0x20 DUP7 ADD PUSH2 0x3F2 JUMP JUMPDEST PUSH2 0x43D DUP2 PUSH2 0x400 JUMP JUMPDEST DUP5 ADD SWAP2 POP POP SWAP3 SWAP2 POP POP JUMP JUMPDEST PUSH0 PUSH1 0x20 DUP3 ADD SWAP1 POP DUP2 DUP2 SUB PUSH0 DUP4 ADD MSTORE PUSH2 0x460 DUP2 DUP5 PUSH2 0x410 JUMP JUMPDEST SWAP1 POP SWAP3 SWAP2 POP POP JUMP JUMPDEST PUSH0 DUP2 ISZERO ISZERO SWAP1 POP SWAP2 SWAP1 POP JUMP JUMPDEST PUSH2 0x47C DUP2 PUSH2 0x468 JUMP JUMPDEST DUP3 MSTORE POP POP JUMP JUMPDEST PUSH0 PUSH1 0x20 DUP3 ADD SWAP1 POP PUSH2 0x495 PUSH0 DUP4 ADD DUP5 PUSH2 0x473 JUMP JUMPDEST SWAP3 SWAP2 POP POP JUMP JUMPDEST PUSH0 DUP2 SWAP1 POP SWAP2 SWAP1 POP JUMP JUMPDEST PUSH2 0x4AD DUP2 PUSH2 0x49B JUMP JUMPDEST DUP3 MSTORE POP POP JUMP JUMPDEST PUSH0 PUSH1 0x20 DUP3 ADD SWAP1 POP PUSH2 0x4C6 PUSH0 DUP4 ADD DUP5 PUSH2 0x4A4 JUMP JUMPDEST SWAP3 SWAP2 POP POP JUMP JUMPDEST PUSH0 PUSH32 0xFFFFFFFF00000000000000000000000000000000000000000000000000000000 DUP3 AND SWAP1 POP SWAP2 SWAP1 POP JUMP JUMPDEST PUSH2 0x500 DUP2 PUSH2 0x4CC JUMP JUMPDEST DUP3 MSTORE POP POP JUMP JUMPDEST PUSH0 PUSH1 0x20 DUP3 ADD SWAP1 POP PUSH2 0x519 PUSH0 DUP4 ADD DUP5 PUSH2 0x4F7 JUMP JUMPDEST SWAP3 SWAP2 POP POP JUMP JUMPDEST PUSH0 PUSH20 0xFFFFFFFFFFFFFFFFFFFFFFFFFFFFFFFFFFFFFFFF DUP3 AND SWAP1 POP SWAP2 SWAP1 POP JUMP JUMPDEST PUSH0 PUSH2 0x548 DUP3 PUSH2 0x51F JUMP JUMPDEST SWAP1 POP SWAP2 SWAP1 POP JUMP JUMPDEST PUSH2 0x558 DUP2 PUSH2 0x53E JUMP JUMPDEST DUP3 MSTORE POP POP JUMP JUMPDEST PUSH0 PUSH1 0x20 DUP3 ADD SWAP1 POP PUSH2 0x571 PUSH0 DUP4 ADD DUP5 PUSH2 0x54F JUMP JUMPDEST SWAP3 SWAP2 POP POP JUMP JUMPDEST PUSH32 0x4E487B7100000000000000000000000000000000000000000000000000000000 PUSH0 MSTORE PUSH1 0x11 PUSH1 0x4 MSTORE PUSH1 0x24 PUSH0 REVERT JUMPDEST PUSH0 PUSH2 0x5AE DUP3 PUSH2 0x33C JUMP JUMPDEST SWAP2 POP PUSH2 0x5B9 DUP4 PUSH2 0x33C JUMP JUMPDEST SWAP3 POP DUP3 DUP3 ADD SWAP1 POP PUSH32 0xFFFFFFFFFFFFFFFFFFFFFFFFFFFFFFFFFFFFFFFFFFFFFFFFFFFFFFFFFF800000 DUP2 SLT PUSH3 0x7FFFFF DUP3 SGT OR ISZERO PUSH2 0x5F8 JUMPI PUSH2 0x5F7 PUSH2 0x577 JUMP JUMPDEST JUMPDEST SWAP3 SWAP2 POP POP JUMP JUMPDEST PUSH32 0x4E487B7100000000000000000000000000000000000000000000000000000000 PUSH0 MSTORE PUSH1 0x22 PUSH1 0x4 MSTORE PUSH1 0x24 PUSH0 REVERT JUMPDEST PUSH0 PUSH1 0x2 DUP3 DIV SWAP1 POP PUSH1 0x1 DUP3 AND DUP1 PUSH2 0x642 JUMPI PUSH1 0x7F DUP3 AND SWAP2 POP JUMPDEST PUSH1 0x20 DUP3 LT DUP2 SUB PUSH2 0x655 JUMPI PUSH2 0x654 PUSH2 0x5FE JUMP JUMPDEST JUMPDEST POP SWAP2 SWAP1 POP JUMP JUMPDEST PUSH0 PUSH2 0x665 DUP3 PUSH2 0x33C JUMP JUMPDEST SWAP2 POP PUSH2 0x670 DUP4 PUSH2 0x33C JUMP JUMPDEST SWAP3 POP DUP3 DUP3 SUB SWAP1 POP PUSH3 0x7FFFFF DUP2 SGT PUSH32 0xFFFFFFFFFFFFFFFFFFFFFFFFFFFFFFFFFFFFFFFFFFFFFFFFFFFFFFFFFF800000 DUP3 SLT OR ISZERO PUSH2 0x6AF JUMPI PUSH2 0x6AE PUSH2 0x577 JUMP JUMPDEST JUMPDEST SWAP3 SWAP2 POP POP JUMP INVALID LOG2 PUSH5 0x6970667358 0x22 SLT KECCAK256 DUP2 COINBASE BALANCE PUSH14 0x30B3D5282C70443C88660896DCFD 0xA6 STATICCALL 0xD3 SWAP2 0x24 PUSH7 0x35628128B25C04 DUP11 PUSH5 0x736F6C6343 STOP ADDMOD 0x1E STOP CALLER "
				},
				"gasEstimates": {
					"creation": {
						"codeDepositCost": "354200",
						"executionCost": "infinite",
						"totalCost": "infinite"
					},
					"external": {
						"add(int24,int24)": "infinite",
						"addressValue()": "2596",
						"boolValue()": "2465",
						"bytes4Value()": "2583",
						"intValue()": "2426",
						"maxInt()": "2470",
						"minInt()": "2514",
						"stringValue()": "infinite",
						"subtract(int24,int24)": "infinite",
						"uintValue()": "2447"
					}
				},
				"methodIdentifiers": {
					"add(int24,int24)": "4a9fb828",
					"addressValue()": "e1d16b83",
					"boolValue()": "93af578d",
					"bytes4Value()": "e0f82151",
					"intValue()": "0c4dae88",
					"maxInt()": "7a4c2571",
					"minInt()": "7e4e14cc",
					"stringValue()": "7dc93929",
					"subtract(int24,int24)": "b7c8b166",
					"uintValue()": "988817b0"
				}
			},
			"storageLayout": {
				"storage": [
					{
						"astId": 4,
						"contract": "ValueTypes.sol:ValueTypes",
						"label": "boolValue",
						"offset": 0,
						"slot": "0",
						"type": "t_bool"
					},
					{
						"astId": 7,
						"contract": "ValueTypes.sol:ValueTypes",
						"label": "uintValue",
						"offset": 0,
						"slot": "1",
						"type": "t_uint256"
					},
					{
						"astId": 11,
						"contract": "ValueTypes.sol:ValueTypes",
						"label": "intValue",
						"offset": 0,
						"slot": "2",
						"type": "t_int256"
					},
					{
						"astId": 14,
						"contract": "ValueTypes.sol:ValueTypes",
						"label": "stringValue",
						"offset": 0,
						"slot": "3",
						"type": "t_string_storage"
					},
					{
						"astId": 20,
						"contract": "ValueTypes.sol:ValueTypes",
						"label": "addressValue",
						"offset": 0,
						"slot": "4",
						"type": "t_address"
					},
					{
						"astId": 26,
						"contract": "ValueTypes.sol:ValueTypes",
						"label": "bytes4Value",
						"offset": 20,
						"slot": "4",
						"type": "t_bytes4"
					},
					{
						"astId": 33,
						"contract": "ValueTypes.sol:ValueTypes",
						"label": "minInt",
						"offset": 0,
						"slot": "5",
						"type": "t_int256"
					},
					{
						"astId": 40,
						"contract": "ValueTypes.sol:ValueTypes",
						"label": "maxInt",
						"offset": 0,
						"slot": "6",
						"type": "t_int256"
					}
				],
				"types": {
					"t_address": {
						"encoding": "inplace",
						"label": "address",
						"numberOfBytes": "20"
					},
					"t_bool": {
						"encoding": "inplace",
						"label": "bool",
						"numberOfBytes": "1"
					},
					"t_bytes4": {
						"encoding": "inplace",
						"label": "bytes4",
						"numberOfBytes": "4"
					},
					"t_int256": {
						"encoding": "inplace",
						"label": "int256",
						"numberOfBytes": "32"
					},
					"t_string_storage": {
						"encoding": "bytes",
						"label": "string",
						"numberOfBytes": "32"
					},
					"t_uint256": {
						"encoding": "inplace",
						"label": "uint256",
						"numberOfBytes": "32"
					}
				}
			},
			"userdoc": {
				"kind": "user",
				"methods": {},
				"version": 1
			}
		}
	}
}