{
	"contracts/Ownable_recap.sol": {
		"OwnableContract": {
			"abi": [
				{
					"inputs": [],
					"stateMutability": "nonpayable",
					"type": "constructor"
				},
				{
					"inputs": [],
					"name": "anyoneCanEdit",
					"outputs": [
						{
							"internalType": "int256",
							"name": "",
							"type": "int256"
						}
					],
					"stateMutability": "view",
					"type": "function"
				},
				{
					"inputs": [],
					"name": "editAnyoneCanEdit",
					"outputs": [],
					"stateMutability": "nonpayable",
					"type": "function"
				},
				{
					"inputs": [],
					"name": "editOwnerCanEdit",
					"outputs": [],
					"stateMutability": "nonpayable",
					"type": "function"
				},
				{
					"inputs": [],
					"name": "getAddress",
					"outputs": [
						{
							"internalType": "address",
							"name": "x",
							"type": "address"
						}
					],
					"stateMutability": "view",
					"type": "function"
				},
				{
					"inputs": [],
					"name": "ownerCanEdit",
					"outputs": [
						{
							"internalType": "int256",
							"name": "",
							"type": "int256"
						}
					],
					"stateMutability": "view",
					"type": "function"
				}
			],
			"devdoc": {
				"kind": "dev",
				"methods": {},
				"version": 1
			},
			"evm": {
				"assembly": "    /* \"contracts/Ownable_recap.sol\":58:638  contract OwnableContract {... */\n  mstore(0x40, 0x80)\n    /* \"contracts/Ownable_recap.sol\":143:144  0 */\n  0x00\n    /* \"contracts/Ownable_recap.sol\":117:144  int public ownerCanEdit = 0 */\n  0x01\n  sstore\n    /* \"contracts/Ownable_recap.sol\":177:178  0 */\n  0x00\n    /* \"contracts/Ownable_recap.sol\":150:178  int public anyoneCanEdit = 0 */\n  0x02\n  sstore\n    /* \"contracts/Ownable_recap.sol\":279:328  constructor() {... */\n  callvalue\n  dup1\n  iszero\n  tag_1\n  jumpi\n  revert(0x00, 0x00)\ntag_1:\n  pop\n    /* \"contracts/Ownable_recap.sol\":311:321  msg.sender */\n  caller\n    /* \"contracts/Ownable_recap.sol\":303:308  owner */\n  0x00\n  0x00\n    /* \"contracts/Ownable_recap.sol\":303:321  owner = msg.sender */\n  0x0100\n  exp\n  dup2\n  sload\n  dup2\n  0xffffffffffffffffffffffffffffffffffffffff\n  mul\n  not\n  and\n  swap1\n  dup4\n  0xffffffffffffffffffffffffffffffffffffffff\n  and\n  mul\n  or\n  swap1\n  sstore\n  pop\n    /* \"contracts/Ownable_recap.sol\":58:638  contract OwnableContract {... */\n  dataSize(sub_0)\n  dup1\n  dataOffset(sub_0)\n  0x00\n  codecopy\n  0x00\n  return\nstop\n\nsub_0: assembly {\n        /* \"contracts/Ownable_recap.sol\":58:638  contract OwnableContract {... */\n      mstore(0x40, 0x80)\n      callvalue\n      dup1\n      iszero\n      tag_1\n      jumpi\n      revert(0x00, 0x00)\n    tag_1:\n      pop\n      jumpi(tag_2, lt(calldatasize, 0x04))\n      shr(0xe0, calldataload(0x00))\n      dup1\n      0x2e02374c\n      eq\n      tag_3\n      jumpi\n      dup1\n      0x38cc4831\n      eq\n      tag_4\n      jumpi\n      dup1\n      0x517b4160\n      eq\n      tag_5\n      jumpi\n      dup1\n      0x731eb1f2\n      eq\n      tag_6\n      jumpi\n      dup1\n      0xf04870ec\n      eq\n      tag_7\n      jumpi\n    tag_2:\n      revert(0x00, 0x00)\n        /* \"contracts/Ownable_recap.sol\":566:636  function editAnyoneCanEdit() external {... */\n    tag_3:\n      tag_8\n      tag_9\n      jump\t// in\n    tag_8:\n      stop\n        /* \"contracts/Ownable_recap.sol\":334:419  function getAddress() external view returns (address x) {... */\n    tag_4:\n      tag_10\n      tag_11\n      jump\t// in\n    tag_10:\n      mload(0x40)\n      tag_12\n      swap2\n      swap1\n      tag_13\n      jump\t// in\n    tag_12:\n      mload(0x40)\n      dup1\n      swap2\n      sub\n      swap1\n      return\n        /* \"contracts/Ownable_recap.sol\":425:560  function editOwnerCanEdit() external {... */\n    tag_5:\n      tag_14\n      tag_15\n      jump\t// in\n    tag_14:\n      stop\n        /* \"contracts/Ownable_recap.sol\":117:144  int public ownerCanEdit = 0 */\n    tag_6:\n      tag_16\n      tag_17\n      jump\t// in\n    tag_16:\n      mload(0x40)\n      tag_18\n      swap2\n      swap1\n      tag_19\n      jump\t// in\n    tag_18:\n      mload(0x40)\n      dup1\n      swap2\n      sub\n      swap1\n      return\n        /* \"contracts/Ownable_recap.sol\":150:178  int public anyoneCanEdit = 0 */\n    tag_7:\n      tag_20\n      tag_21\n      jump\t// in\n    tag_20:\n      mload(0x40)\n      tag_22\n      swap2\n      swap1\n      tag_19\n      jump\t// in\n    tag_22:\n      mload(0x40)\n      dup1\n      swap2\n      sub\n      swap1\n      return\n        /* \"contracts/Ownable_recap.sol\":566:636  function editAnyoneCanEdit() external {... */\n    tag_9:\n        /* \"contracts/Ownable_recap.sol\":614:627  anyoneCanEdit */\n      0x02\n      0x00\n        /* \"contracts/Ownable_recap.sol\":614:629  anyoneCanEdit++ */\n      dup2\n      sload\n      dup1\n      swap3\n      swap2\n      swap1\n      tag_24\n      swap1\n      tag_25\n      jump\t// in\n    tag_24:\n      swap2\n      swap1\n      pop\n      sstore\n      pop\n        /* \"contracts/Ownable_recap.sol\":566:636  function editAnyoneCanEdit() external {... */\n      jump\t// out\n        /* \"contracts/Ownable_recap.sol\":334:419  function getAddress() external view returns (address x) {... */\n    tag_11:\n        /* \"contracts/Ownable_recap.sol\":379:388  address x */\n      0x00\n        /* \"contracts/Ownable_recap.sol\":407:412  owner */\n      0x00\n      0x00\n      swap1\n      sload\n      swap1\n      0x0100\n      exp\n      swap1\n      div\n      0xffffffffffffffffffffffffffffffffffffffff\n      and\n        /* \"contracts/Ownable_recap.sol\":400:412  return owner */\n      swap1\n      pop\n        /* \"contracts/Ownable_recap.sol\":334:419  function getAddress() external view returns (address x) {... */\n      swap1\n      jump\t// out\n        /* \"contracts/Ownable_recap.sol\":425:560  function editOwnerCanEdit() external {... */\n    tag_15:\n        /* \"contracts/Ownable_recap.sol\":494:499  owner */\n      0x00\n      0x00\n      swap1\n      sload\n      swap1\n      0x0100\n      exp\n      swap1\n      div\n      0xffffffffffffffffffffffffffffffffffffffff\n      and\n        /* \"contracts/Ownable_recap.sol\":480:499  msg.sender == owner */\n      0xffffffffffffffffffffffffffffffffffffffff\n      and\n        /* \"contracts/Ownable_recap.sol\":480:490  msg.sender */\n      caller\n        /* \"contracts/Ownable_recap.sol\":480:499  msg.sender == owner */\n      0xffffffffffffffffffffffffffffffffffffffff\n      and\n      eq\n        /* \"contracts/Ownable_recap.sol\":472:529  require(msg.sender == owner, \"Only owner can call this.\") */\n      tag_28\n      jumpi\n      mload(0x40)\n      0x08c379a000000000000000000000000000000000000000000000000000000000\n      dup2\n      mstore\n      0x04\n      add\n      tag_29\n      swap1\n      tag_30\n      jump\t// in\n    tag_29:\n      mload(0x40)\n      dup1\n      swap2\n      sub\n      swap1\n      revert\n    tag_28:\n        /* \"contracts/Ownable_recap.sol\":539:551  ownerCanEdit */\n      0x01\n      0x00\n        /* \"contracts/Ownable_recap.sol\":539:553  ownerCanEdit++ */\n      dup2\n      sload\n      dup1\n      swap3\n      swap2\n      swap1\n      tag_31\n      swap1\n      tag_25\n      jump\t// in\n    tag_31:\n      swap2\n      swap1\n      pop\n      sstore\n      pop\n        /* \"contracts/Ownable_recap.sol\":425:560  function editOwnerCanEdit() external {... */\n      jump\t// out\n        /* \"contracts/Ownable_recap.sol\":117:144  int public ownerCanEdit = 0 */\n    tag_17:\n      sload(0x01)\n      dup2\n      jump\t// out\n        /* \"contracts/Ownable_recap.sol\":150:178  int public anyoneCanEdit = 0 */\n    tag_21:\n      sload(0x02)\n      dup2\n      jump\t// out\n        /* \"#utility.yul\":7:133   */\n    tag_32:\n        /* \"#utility.yul\":44:51   */\n      0x00\n        /* \"#utility.yul\":84:126   */\n      0xffffffffffffffffffffffffffffffffffffffff\n        /* \"#utility.yul\":77:82   */\n      dup3\n        /* \"#utility.yul\":73:127   */\n      and\n        /* \"#utility.yul\":62:127   */\n      swap1\n      pop\n        /* \"#utility.yul\":7:133   */\n      swap2\n      swap1\n      pop\n      jump\t// out\n        /* \"#utility.yul\":139:235   */\n    tag_33:\n        /* \"#utility.yul\":176:183   */\n      0x00\n        /* \"#utility.yul\":205:229   */\n      tag_44\n        /* \"#utility.yul\":223:228   */\n      dup3\n        /* \"#utility.yul\":205:229   */\n      tag_32\n      jump\t// in\n    tag_44:\n        /* \"#utility.yul\":194:229   */\n      swap1\n      pop\n        /* \"#utility.yul\":139:235   */\n      swap2\n      swap1\n      pop\n      jump\t// out\n        /* \"#utility.yul\":241:359   */\n    tag_34:\n        /* \"#utility.yul\":328:352   */\n      tag_46\n        /* \"#utility.yul\":346:351   */\n      dup2\n        /* \"#utility.yul\":328:352   */\n      tag_33\n      jump\t// in\n    tag_46:\n        /* \"#utility.yul\":323:326   */\n      dup3\n        /* \"#utility.yul\":316:353   */\n      mstore\n        /* \"#utility.yul\":241:359   */\n      pop\n      pop\n      jump\t// out\n        /* \"#utility.yul\":365:587   */\n    tag_13:\n        /* \"#utility.yul\":458:462   */\n      0x00\n        /* \"#utility.yul\":496:498   */\n      0x20\n        /* \"#utility.yul\":485:494   */\n      dup3\n        /* \"#utility.yul\":481:499   */\n      add\n        /* \"#utility.yul\":473:499   */\n      swap1\n      pop\n        /* \"#utility.yul\":509:580   */\n      tag_48\n        /* \"#utility.yul\":577:578   */\n      0x00\n        /* \"#utility.yul\":566:575   */\n      dup4\n        /* \"#utility.yul\":562:579   */\n      add\n        /* \"#utility.yul\":553:559   */\n      dup5\n        /* \"#utility.yul\":509:580   */\n      tag_34\n      jump\t// in\n    tag_48:\n        /* \"#utility.yul\":365:587   */\n      swap3\n      swap2\n      pop\n      pop\n      jump\t// out\n        /* \"#utility.yul\":593:669   */\n    tag_35:\n        /* \"#utility.yul\":629:636   */\n      0x00\n        /* \"#utility.yul\":658:663   */\n      dup2\n        /* \"#utility.yul\":647:663   */\n      swap1\n      pop\n        /* \"#utility.yul\":593:669   */\n      swap2\n      swap1\n      pop\n      jump\t// out\n        /* \"#utility.yul\":675:790   */\n    tag_36:\n        /* \"#utility.yul\":760:783   */\n      tag_51\n        /* \"#utility.yul\":777:782   */\n      dup2\n        /* \"#utility.yul\":760:783   */\n      tag_35\n      jump\t// in\n    tag_51:\n        /* \"#utility.yul\":755:758   */\n      dup3\n        /* \"#utility.yul\":748:784   */\n      mstore\n        /* \"#utility.yul\":675:790   */\n      pop\n      pop\n      jump\t// out\n        /* \"#utility.yul\":796:1014   */\n    tag_19:\n        /* \"#utility.yul\":887:891   */\n      0x00\n        /* \"#utility.yul\":925:927   */\n      0x20\n        /* \"#utility.yul\":914:923   */\n      dup3\n        /* \"#utility.yul\":910:928   */\n      add\n        /* \"#utility.yul\":902:928   */\n      swap1\n      pop\n        /* \"#utility.yul\":938:1007   */\n      tag_53\n        /* \"#utility.yul\":1004:1005   */\n      0x00\n        /* \"#utility.yul\":993:1002   */\n      dup4\n        /* \"#utility.yul\":989:1006   */\n      add\n        /* \"#utility.yul\":980:986   */\n      dup5\n        /* \"#utility.yul\":938:1007   */\n      tag_36\n      jump\t// in\n    tag_53:\n        /* \"#utility.yul\":796:1014   */\n      swap3\n      swap2\n      pop\n      pop\n      jump\t// out\n        /* \"#utility.yul\":1020:1200   */\n    tag_37:\n        /* \"#utility.yul\":1068:1145   */\n      0x4e487b7100000000000000000000000000000000000000000000000000000000\n        /* \"#utility.yul\":1065:1066   */\n      0x00\n        /* \"#utility.yul\":1058:1146   */\n      mstore\n        /* \"#utility.yul\":1165:1169   */\n      0x11\n        /* \"#utility.yul\":1162:1163   */\n      0x04\n        /* \"#utility.yul\":1155:1170   */\n      mstore\n        /* \"#utility.yul\":1189:1193   */\n      0x24\n        /* \"#utility.yul\":1186:1187   */\n      0x00\n        /* \"#utility.yul\":1179:1194   */\n      revert\n        /* \"#utility.yul\":1206:1437   */\n    tag_25:\n        /* \"#utility.yul\":1244:1247   */\n      0x00\n        /* \"#utility.yul\":1267:1290   */\n      tag_56\n        /* \"#utility.yul\":1284:1289   */\n      dup3\n        /* \"#utility.yul\":1267:1290   */\n      tag_35\n      jump\t// in\n    tag_56:\n        /* \"#utility.yul\":1258:1290   */\n      swap2\n      pop\n        /* \"#utility.yul\":1312:1378   */\n      0x7fffffffffffffffffffffffffffffffffffffffffffffffffffffffffffffff\n        /* \"#utility.yul\":1305:1310   */\n      dup3\n        /* \"#utility.yul\":1302:1379   */\n      sub\n        /* \"#utility.yul\":1299:1402   */\n      tag_57\n      jumpi\n        /* \"#utility.yul\":1382:1400   */\n      tag_58\n      tag_37\n      jump\t// in\n    tag_58:\n        /* \"#utility.yul\":1299:1402   */\n    tag_57:\n        /* \"#utility.yul\":1429:1430   */\n      0x01\n        /* \"#utility.yul\":1422:1427   */\n      dup3\n        /* \"#utility.yul\":1418:1431   */\n      add\n        /* \"#utility.yul\":1411:1431   */\n      swap1\n      pop\n        /* \"#utility.yul\":1206:1437   */\n      swap2\n      swap1\n      pop\n      jump\t// out\n        /* \"#utility.yul\":1443:1612   */\n    tag_38:\n        /* \"#utility.yul\":1527:1538   */\n      0x00\n        /* \"#utility.yul\":1561:1567   */\n      dup3\n        /* \"#utility.yul\":1556:1559   */\n      dup3\n        /* \"#utility.yul\":1549:1568   */\n      mstore\n        /* \"#utility.yul\":1601:1605   */\n      0x20\n        /* \"#utility.yul\":1596:1599   */\n      dup3\n        /* \"#utility.yul\":1592:1606   */\n      add\n        /* \"#utility.yul\":1577:1606   */\n      swap1\n      pop\n        /* \"#utility.yul\":1443:1612   */\n      swap3\n      swap2\n      pop\n      pop\n      jump\t// out\n        /* \"#utility.yul\":1618:1793   */\n    tag_39:\n        /* \"#utility.yul\":1758:1785   */\n      0x4f6e6c79206f776e65722063616e2063616c6c20746869732e00000000000000\n        /* \"#utility.yul\":1754:1755   */\n      0x00\n        /* \"#utility.yul\":1746:1752   */\n      dup3\n        /* \"#utility.yul\":1742:1756   */\n      add\n        /* \"#utility.yul\":1735:1786   */\n      mstore\n        /* \"#utility.yul\":1618:1793   */\n      pop\n      jump\t// out\n        /* \"#utility.yul\":1799:2165   */\n    tag_40:\n        /* \"#utility.yul\":1941:1944   */\n      0x00\n        /* \"#utility.yul\":1962:2029   */\n      tag_62\n        /* \"#utility.yul\":2026:2028   */\n      0x19\n        /* \"#utility.yul\":2021:2024   */\n      dup4\n        /* \"#utility.yul\":1962:2029   */\n      tag_38\n      jump\t// in\n    tag_62:\n        /* \"#utility.yul\":1955:2029   */\n      swap2\n      pop\n        /* \"#utility.yul\":2038:2131   */\n      tag_63\n        /* \"#utility.yul\":2127:2130   */\n      dup3\n        /* \"#utility.yul\":2038:2131   */\n      tag_39\n      jump\t// in\n    tag_63:\n        /* \"#utility.yul\":2156:2158   */\n      0x20\n        /* \"#utility.yul\":2151:2154   */\n      dup3\n        /* \"#utility.yul\":2147:2159   */\n      add\n        /* \"#utility.yul\":2140:2159   */\n      swap1\n      pop\n        /* \"#utility.yul\":1799:2165   */\n      swap2\n      swap1\n      pop\n      jump\t// out\n        /* \"#utility.yul\":2171:2590   */\n    tag_30:\n        /* \"#utility.yul\":2337:2341   */\n      0x00\n        /* \"#utility.yul\":2375:2377   */\n      0x20\n        /* \"#utility.yul\":2364:2373   */\n      dup3\n        /* \"#utility.yul\":2360:2378   */\n      add\n        /* \"#utility.yul\":2352:2378   */\n      swap1\n      pop\n        /* \"#utility.yul\":2424:2433   */\n      dup2\n        /* \"#utility.yul\":2418:2422   */\n      dup2\n        /* \"#utility.yul\":2414:2434   */\n      sub\n        /* \"#utility.yul\":2410:2411   */\n      0x00\n        /* \"#utility.yul\":2399:2408   */\n      dup4\n        /* \"#utility.yul\":2395:2412   */\n      add\n        /* \"#utility.yul\":2388:2435   */\n      mstore\n        /* \"#utility.yul\":2452:2583   */\n      tag_65\n        /* \"#utility.yul\":2578:2582   */\n      dup2\n        /* \"#utility.yul\":2452:2583   */\n      tag_40\n      jump\t// in\n    tag_65:\n        /* \"#utility.yul\":2444:2583   */\n      swap1\n      pop\n        /* \"#utility.yul\":2171:2590   */\n      swap2\n      swap1\n      pop\n      jump\t// out\n\n    auxdata: 0xa2646970667358221220e4e65974e5943189b442c5356f937c9e8d293ce0a5d3f52390c289260e1c041964736f6c634300081e0033\n}\n",
				"bytecode": {
					"linkReferences": {},
					"object": "60806040525f6001555f6002553480156016575f5ffd5b50335f5f6101000a81548173ffffffffffffffffffffffffffffffffffffffff021916908373ffffffffffffffffffffffffffffffffffffffff160217905550610365806100635f395ff3fe608060405234801561000f575f5ffd5b5060043610610055575f3560e01c80632e02374c1461005957806338cc483114610063578063517b416014610081578063731eb1f21461008b578063f04870ec146100a9575b5f5ffd5b6100616100c7565b005b61006b6100e0565b60405161007891906101f9565b60405180910390f35b610089610107565b005b6100936101ae565b6040516100a0919061022a565b60405180910390f35b6100b16101b4565b6040516100be919061022a565b60405180910390f35b60025f8154809291906100d990610270565b9190505550565b5f5f5f9054906101000a900473ffffffffffffffffffffffffffffffffffffffff16905090565b5f5f9054906101000a900473ffffffffffffffffffffffffffffffffffffffff1673ffffffffffffffffffffffffffffffffffffffff163373ffffffffffffffffffffffffffffffffffffffff1614610195576040517f08c379a000000000000000000000000000000000000000000000000000000000815260040161018c90610311565b60405180910390fd5b60015f8154809291906101a790610270565b9190505550565b60015481565b60025481565b5f73ffffffffffffffffffffffffffffffffffffffff82169050919050565b5f6101e3826101ba565b9050919050565b6101f3816101d9565b82525050565b5f60208201905061020c5f8301846101ea565b92915050565b5f819050919050565b61022481610212565b82525050565b5f60208201905061023d5f83018461021b565b92915050565b7f4e487b71000000000000000000000000000000000000000000000000000000005f52601160045260245ffd5b5f61027a82610212565b91507f7fffffffffffffffffffffffffffffffffffffffffffffffffffffffffffffff82036102ac576102ab610243565b5b600182019050919050565b5f82825260208201905092915050565b7f4f6e6c79206f776e65722063616e2063616c6c20746869732e000000000000005f82015250565b5f6102fb6019836102b7565b9150610306826102c7565b602082019050919050565b5f6020820190508181035f830152610328816102ef565b905091905056fea2646970667358221220e4e65974e5943189b442c5356f937c9e8d293ce0a5d3f52390c289260e1c041964736f6c634300081e0033",
					"opcodes": "PUSH1 0x80 PUSH1 0x40 MSTORE PUSH0 PUSH1 0x1 SSTORE PUSH0 PUSH1 0x2 SSTORE CALLVALUE DUP1 ISZERO PUSH1 0x16 JUMPI PUSH0 PUSH0 REVERT JUMPDEST POP CALLER PUSH0 PUSH0 PUSH2 0x100 EXP DUP2 SLOAD DUP2 PUSH20 0xFFFFFFFFFFFFFFFFFFFFFFFFFFFFFFFFFFFFFFFF MUL NOT AND SWAP1 DUP4 PUSH20 0xFFFFFFFFFFFFFFFFFFFFFFFFFFFFFFFFFFFFFFFF AND MUL OR SWAP1 SSTORE POP PUSH2 0x365 DUP1 PUSH2 0x63 PUSH0 CODECOPY PUSH0 RETURN INVALID PUSH1 0x80 PUSH1 0x40 MSTORE CALLVALUE DUP1 ISZERO PUSH2 0xF JUMPI PUSH0 PUSH0 REVERT JUMPDEST POP PUSH1 0x4 CALLDATASIZE LT PUSH2 0x55 JUMPI PUSH0 CALLDATALOAD PUSH1 0xE0 SHR DUP1 PUSH4 0x2E02374C EQ PUSH2 0x59 JUMPI DUP1 PUSH4 0x38CC4831 EQ PUSH2 0x63 JUMPI DUP1 PUSH4 0x517B4160 EQ PUSH2 0x81 JUMPI DUP1 PUSH4 0x731EB1F2 EQ PUSH2 0x8B JUMPI DUP1 PUSH4 0xF04870EC EQ PUSH2 0xA9 JUMPI JUMPDEST PUSH0 PUSH0 REVERT JUMPDEST PUSH2 0x61 PUSH2 0xC7 JUMP JUMPDEST STOP JUMPDEST PUSH2 0x6B PUSH2 0xE0 JUMP JUMPDEST PUSH1 0x40 MLOAD PUSH2 0x78 SWAP2 SWAP1 PUSH2 0x1F9 JUMP JUMPDEST PUSH1 0x40 MLOAD DUP1 SWAP2 SUB SWAP1 RETURN JUMPDEST PUSH2 0x89 PUSH2 0x107 JUMP JUMPDEST STOP JUMPDEST PUSH2 0x93 PUSH2 0x1AE JUMP JUMPDEST PUSH1 0x40 MLOAD PUSH2 0xA0 SWAP2 SWAP1 PUSH2 0x22A JUMP JUMPDEST PUSH1 0x40 MLOAD DUP1 SWAP2 SUB SWAP1 RETURN JUMPDEST PUSH2 0xB1 PUSH2 0x1B4 JUMP JUMPDEST PUSH1 0x40 MLOAD PUSH2 0xBE SWAP2 SWAP1 PUSH2 0x22A JUMP JUMPDEST PUSH1 0x40 MLOAD DUP1 SWAP2 SUB SWAP1 RETURN JUMPDEST PUSH1 0x2 PUSH0 DUP2 SLOAD DUP1 SWAP3 SWAP2 SWAP1 PUSH2 0xD9 SWAP1 PUSH2 0x270 JUMP JUMPDEST SWAP2 SWAP1 POP SSTORE POP JUMP JUMPDEST PUSH0 PUSH0 PUSH0 SWAP1 SLOAD SWAP1 PUSH2 0x100 EXP SWAP1 DIV PUSH20 0xFFFFFFFFFFFFFFFFFFFFFFFFFFFFFFFFFFFFFFFF AND SWAP1 POP SWAP1 JUMP JUMPDEST PUSH0 PUSH0 SWAP1 SLOAD SWAP1 PUSH2 0x100 EXP SWAP1 DIV PUSH20 0xFFFFFFFFFFFFFFFFFFFFFFFFFFFFFFFFFFFFFFFF AND PUSH20 0xFFFFFFFFFFFFFFFFFFFFFFFFFFFFFFFFFFFFFFFF AND CALLER PUSH20 0xFFFFFFFFFFFFFFFFFFFFFFFFFFFFFFFFFFFFFFFF AND EQ PUSH2 0x195 JUMPI PUSH1 0x40 MLOAD PUSH32 0x8C379A000000000000000000000000000000000000000000000000000000000 DUP2 MSTORE PUSH1 0x4 ADD PUSH2 0x18C SWAP1 PUSH2 0x311 JUMP JUMPDEST PUSH1 0x40 MLOAD DUP1 SWAP2 SUB SWAP1 REVERT JUMPDEST PUSH1 0x1 PUSH0 DUP2 SLOAD DUP1 SWAP3 SWAP2 SWAP1 PUSH2 0x1A7 SWAP1 PUSH2 0x270 JUMP JUMPDEST SWAP2 SWAP1 POP SSTORE POP JUMP JUMPDEST PUSH1 0x1 SLOAD DUP2 JUMP JUMPDEST PUSH1 0x2 SLOAD DUP2 JUMP JUMPDEST PUSH0 PUSH20 0xFFFFFFFFFFFFFFFFFFFFFFFFFFFFFFFFFFFFFFFF DUP3 AND SWAP1 POP SWAP2 SWAP1 POP JUMP JUMPDEST PUSH0 PUSH2 0x1E3 DUP3 PUSH2 0x1BA JUMP JUMPDEST SWAP1 POP SWAP2 SWAP1 POP JUMP JUMPDEST PUSH2 0x1F3 DUP2 PUSH2 0x1D9 JUMP JUMPDEST DUP3 MSTORE POP POP JUMP JUMPDEST PUSH0 PUSH1 0x20 DUP3 ADD SWAP1 POP PUSH2 0x20C PUSH0 DUP4 ADD DUP5 PUSH2 0x1EA JUMP JUMPDEST SWAP3 SWAP2 POP POP JUMP JUMPDEST PUSH0 DUP2 SWAP1 POP SWAP2 SWAP1 POP JUMP JUMPDEST PUSH2 0x224 DUP2 PUSH2 0x212 JUMP JUMPDEST DUP3 MSTORE POP POP JUMP JUMPDEST PUSH0 PUSH1 0x20 DUP3 ADD SWAP1 POP PUSH2 0x23D PUSH0 DUP4 ADD DUP5 PUSH2 0x21B JUMP JUMPDEST SWAP3 SWAP2 POP POP JUMP JUMPDEST PUSH32 0x4E487B7100000000000000000000000000000000000000000000000000000000 PUSH0 MSTORE PUSH1 0x11 PUSH1 0x4 MSTORE PUSH1 0x24 PUSH0 REVERT JUMPDEST PUSH0 PUSH2 0x27A DUP3 PUSH2 0x212 JUMP JUMPDEST SWAP2 POP PUSH32 0x7FFFFFFFFFFFFFFFFFFFFFFFFFFFFFFFFFFFFFFFFFFFFFFFFFFFFFFFFFFFFFFF DUP3 SUB PUSH2 0x2AC JUMPI PUSH2 0x2AB PUSH2 0x243 JUMP JUMPDEST JUMPDEST PUSH1 0x1 DUP3 ADD SWAP1 POP SWAP2 SWAP1 POP JUMP JUMPDEST PUSH0 DUP3 DUP3 MSTORE PUSH1 0x20 DUP3 ADD SWAP1 POP SWAP3 SWAP2 POP POP JUMP JUMPDEST PUSH32 0x4F6E6C79206F776E65722063616E2063616C6C20746869732E00000000000000 PUSH0 DUP3 ADD MSTORE POP JUMP JUMPDEST PUSH0 PUSH2 0x2FB PUSH1 0x19 DUP4 PUSH2 0x2B7 JUMP JUMPDEST SWAP2 POP PUSH2 0x306 DUP3 PUSH2 0x2C7 JUMP JUMPDEST PUSH1 0x20 DUP3 ADD SWAP1 POP SWAP2 SWAP1 POP JUMP JUMPDEST PUSH0 PUSH1 0x20 DUP3 ADD SWAP1 POP DUP2 DUP2 SUB PUSH0 DUP4 ADD MSTORE PUSH2 0x328 DUP2 PUSH2 0x2EF JUMP JUMPDEST SWAP1 POP SWAP2 SWAP1 POP JUMP INVALID LOG2 PUSH5 0x6970667358 0x22 SLT KECCAK256 RETF DUPN 0x59 PUSH21 0xE5943189B442C5356F937C9E8D293CE0A5D3F52390 0xC2 DUP10 0x26 0xE SHR DIV NOT PUSH5 0x736F6C6343 STOP ADDMOD 0x1E STOP CALLER "
				},
				"gasEstimates": {
					"creation": {
						"codeDepositCost": "173800",
						"executionCost": "34492",
						"totalCost": "208292"
					},
					"external": {
						"anyoneCanEdit()": "2491",
						"editAnyoneCanEdit()": "24475",
						"editOwnerCanEdit()": "26687",
						"getAddress()": "2514",
						"ownerCanEdit()": "2469"
					}
				},
				"methodIdentifiers": {
					"anyoneCanEdit()": "f04870ec",
					"editAnyoneCanEdit()": "2e02374c",
					"editOwnerCanEdit()": "517b4160",
					"getAddress()": "38cc4831",
					"ownerCanEdit()": "731eb1f2"
				}
			},
			"storageLayout": {
				"storage": [
					{
						"astId": 3,
						"contract": "contracts/Ownable_recap.sol:OwnableContract",
						"label": "owner",
						"offset": 0,
						"slot": "0",
						"type": "t_address"
					},
					{
						"astId": 6,
						"contract": "contracts/Ownable_recap.sol:OwnableContract",
						"label": "ownerCanEdit",
						"offset": 0,
						"slot": "1",
						"type": "t_int256"
					},
					{
						"astId": 9,
						"contract": "contracts/Ownable_recap.sol:OwnableContract",
						"label": "anyoneCanEdit",
						"offset": 0,
						"slot": "2",
						"type": "t_int256"
					}
				],
				"types": {
					"t_address": {
						"encoding": "inplace",
						"label": "address",
						"numberOfBytes": "20"
					},
					"t_int256": {
						"encoding": "inplace",
						"label": "int256",
						"numberOfBytes": "32"
					}
				}
			},
			"userdoc": {
				"kind": "user",
				"methods": {},
				"version": 1
			}
		}
	}
}