{
	"contracts/Ownable.sol": {
		"Ownable": {
			"abi": [
				{
					"inputs": [],
					"stateMutability": "nonpayable",
					"type": "constructor"
				},
				{
					"inputs": [],
					"name": "nonProtectedCall",
					"outputs": [],
					"stateMutability": "nonpayable",
					"type": "function"
				},
				{
					"inputs": [],
					"name": "owner",
					"outputs": [
						{
							"internalType": "address",
							"name": "",
							"type": "address"
						}
					],
					"stateMutability": "view",
					"type": "function"
				},
				{
					"inputs": [],
					"name": "ownerCalls",
					"outputs": [
						{
							"internalType": "int256",
							"name": "",
							"type": "int256"
						}
					],
					"stateMutability": "view",
					"type": "function"
				},
				{
					"inputs": [],
					"name": "protectedCall",
					"outputs": [],
					"stateMutability": "nonpayable",
					"type": "function"
				},
				{
					"inputs": [],
					"name": "publicCalls",
					"outputs": [
						{
							"internalType": "int256",
							"name": "",
							"type": "int256"
						}
					],
					"stateMutability": "view",
					"type": "function"
				}
			],
			"devdoc": {
				"kind": "dev",
				"methods": {},
				"version": 1
			},
			"evm": {
				"assembly": "    /* \"contracts/Ownable.sol\":57:407  contract Ownable {... */\n  mstore(0x40, 0x80)\n    /* \"contracts/Ownable.sol\":163:212  constructor() {... */\n  callvalue\n  dup1\n  iszero\n  tag_1\n  jumpi\n  revert(0x00, 0x00)\ntag_1:\n  pop\n    /* \"contracts/Ownable.sol\":195:205  msg.sender */\n  caller\n    /* \"contracts/Ownable.sol\":187:192  owner */\n  0x00\n  0x00\n    /* \"contracts/Ownable.sol\":187:205  owner = msg.sender */\n  0x0100\n  exp\n  dup2\n  sload\n  dup2\n  0xffffffffffffffffffffffffffffffffffffffff\n  mul\n  not\n  and\n  swap1\n  dup4\n  0xffffffffffffffffffffffffffffffffffffffff\n  and\n  mul\n  or\n  swap1\n  sstore\n  pop\n    /* \"contracts/Ownable.sol\":57:407  contract Ownable {... */\n  dataSize(sub_0)\n  dup1\n  dataOffset(sub_0)\n  0x00\n  codecopy\n  0x00\n  return\nstop\n\nsub_0: assembly {\n        /* \"contracts/Ownable.sol\":57:407  contract Ownable {... */\n      mstore(0x40, 0x80)\n      callvalue\n      dup1\n      iszero\n      tag_1\n      jumpi\n      revert(0x00, 0x00)\n    tag_1:\n      pop\n      jumpi(tag_2, lt(calldatasize, 0x04))\n      shr(0xe0, calldataload(0x00))\n      dup1\n      0x8da5cb5b\n      eq\n      tag_3\n      jumpi\n      dup1\n      0x9ce31346\n      eq\n      tag_4\n      jumpi\n      dup1\n      0xcc9fb198\n      eq\n      tag_5\n      jumpi\n      dup1\n      0xec246ff3\n      eq\n      tag_6\n      jumpi\n      dup1\n      0xf079218a\n      eq\n      tag_7\n      jumpi\n    tag_2:\n      revert(0x00, 0x00)\n        /* \"contracts/Ownable.sol\":80:100  address public owner */\n    tag_3:\n      tag_8\n      tag_9\n      jump\t// in\n    tag_8:\n      mload(0x40)\n      tag_10\n      swap2\n      swap1\n      tag_11\n      jump\t// in\n    tag_10:\n      mload(0x40)\n      dup1\n      swap2\n      sub\n      swap1\n      return\n        /* \"contracts/Ownable.sol\":218:332  function protectedCall() external {... */\n    tag_4:\n      tag_12\n      tag_13\n      jump\t// in\n    tag_12:\n      stop\n        /* \"contracts/Ownable.sol\":107:128  int public ownerCalls */\n    tag_5:\n      tag_14\n      tag_15\n      jump\t// in\n    tag_14:\n      mload(0x40)\n      tag_16\n      swap2\n      swap1\n      tag_17\n      jump\t// in\n    tag_16:\n      mload(0x40)\n      dup1\n      swap2\n      sub\n      swap1\n      return\n        /* \"contracts/Ownable.sol\":134:156  int public publicCalls */\n    tag_6:\n      tag_18\n      tag_19\n      jump\t// in\n    tag_18:\n      mload(0x40)\n      tag_20\n      swap2\n      swap1\n      tag_17\n      jump\t// in\n    tag_20:\n      mload(0x40)\n      dup1\n      swap2\n      sub\n      swap1\n      return\n        /* \"contracts/Ownable.sol\":338:405  function nonProtectedCall() external {... */\n    tag_7:\n      tag_21\n      tag_22\n      jump\t// in\n    tag_21:\n      stop\n        /* \"contracts/Ownable.sol\":80:100  address public owner */\n    tag_9:\n      0x00\n      0x00\n      swap1\n      sload\n      swap1\n      0x0100\n      exp\n      swap1\n      div\n      0xffffffffffffffffffffffffffffffffffffffff\n      and\n      dup2\n      jump\t// out\n        /* \"contracts/Ownable.sol\":218:332  function protectedCall() external {... */\n    tag_13:\n        /* \"contracts/Ownable.sol\":284:289  owner */\n      0x00\n      0x00\n      swap1\n      sload\n      swap1\n      0x0100\n      exp\n      swap1\n      div\n      0xffffffffffffffffffffffffffffffffffffffff\n      and\n        /* \"contracts/Ownable.sol\":270:289  msg.sender == owner */\n      0xffffffffffffffffffffffffffffffffffffffff\n      and\n        /* \"contracts/Ownable.sol\":270:280  msg.sender */\n      caller\n        /* \"contracts/Ownable.sol\":270:289  msg.sender == owner */\n      0xffffffffffffffffffffffffffffffffffffffff\n      and\n      eq\n        /* \"contracts/Ownable.sol\":262:303  require(msg.sender == owner, \"not owner\") */\n      tag_24\n      jumpi\n      mload(0x40)\n      0x08c379a000000000000000000000000000000000000000000000000000000000\n      dup2\n      mstore\n      0x04\n      add\n      tag_25\n      swap1\n      tag_26\n      jump\t// in\n    tag_25:\n      mload(0x40)\n      dup1\n      swap2\n      sub\n      swap1\n      revert\n    tag_24:\n        /* \"contracts/Ownable.sol\":313:323  ownerCalls */\n      0x01\n      0x00\n        /* \"contracts/Ownable.sol\":313:325  ownerCalls++ */\n      dup2\n      sload\n      dup1\n      swap3\n      swap2\n      swap1\n      tag_27\n      swap1\n      tag_28\n      jump\t// in\n    tag_27:\n      swap2\n      swap1\n      pop\n      sstore\n      pop\n        /* \"contracts/Ownable.sol\":218:332  function protectedCall() external {... */\n      jump\t// out\n        /* \"contracts/Ownable.sol\":107:128  int public ownerCalls */\n    tag_15:\n      sload(0x01)\n      dup2\n      jump\t// out\n        /* \"contracts/Ownable.sol\":134:156  int public publicCalls */\n    tag_19:\n      sload(0x02)\n      dup2\n      jump\t// out\n        /* \"contracts/Ownable.sol\":338:405  function nonProtectedCall() external {... */\n    tag_22:\n        /* \"contracts/Ownable.sol\":385:396  publicCalls */\n      0x02\n      0x00\n        /* \"contracts/Ownable.sol\":385:398  publicCalls++ */\n      dup2\n      sload\n      dup1\n      swap3\n      swap2\n      swap1\n      tag_30\n      swap1\n      tag_28\n      jump\t// in\n    tag_30:\n      swap2\n      swap1\n      pop\n      sstore\n      pop\n        /* \"contracts/Ownable.sol\":338:405  function nonProtectedCall() external {... */\n      jump\t// out\n        /* \"#utility.yul\":7:133   */\n    tag_31:\n        /* \"#utility.yul\":44:51   */\n      0x00\n        /* \"#utility.yul\":84:126   */\n      0xffffffffffffffffffffffffffffffffffffffff\n        /* \"#utility.yul\":77:82   */\n      dup3\n        /* \"#utility.yul\":73:127   */\n      and\n        /* \"#utility.yul\":62:127   */\n      swap1\n      pop\n        /* \"#utility.yul\":7:133   */\n      swap2\n      swap1\n      pop\n      jump\t// out\n        /* \"#utility.yul\":139:235   */\n    tag_32:\n        /* \"#utility.yul\":176:183   */\n      0x00\n        /* \"#utility.yul\":205:229   */\n      tag_43\n        /* \"#utility.yul\":223:228   */\n      dup3\n        /* \"#utility.yul\":205:229   */\n      tag_31\n      jump\t// in\n    tag_43:\n        /* \"#utility.yul\":194:229   */\n      swap1\n      pop\n        /* \"#utility.yul\":139:235   */\n      swap2\n      swap1\n      pop\n      jump\t// out\n        /* \"#utility.yul\":241:359   */\n    tag_33:\n        /* \"#utility.yul\":328:352   */\n      tag_45\n        /* \"#utility.yul\":346:351   */\n      dup2\n        /* \"#utility.yul\":328:352   */\n      tag_32\n      jump\t// in\n    tag_45:\n        /* \"#utility.yul\":323:326   */\n      dup3\n        /* \"#utility.yul\":316:353   */\n      mstore\n        /* \"#utility.yul\":241:359   */\n      pop\n      pop\n      jump\t// out\n        /* \"#utility.yul\":365:587   */\n    tag_11:\n        /* \"#utility.yul\":458:462   */\n      0x00\n        /* \"#utility.yul\":496:498   */\n      0x20\n        /* \"#utility.yul\":485:494   */\n      dup3\n        /* \"#utility.yul\":481:499   */\n      add\n        /* \"#utility.yul\":473:499   */\n      swap1\n      pop\n        /* \"#utility.yul\":509:580   */\n      tag_47\n        /* \"#utility.yul\":577:578   */\n      0x00\n        /* \"#utility.yul\":566:575   */\n      dup4\n        /* \"#utility.yul\":562:579   */\n      add\n        /* \"#utility.yul\":553:559   */\n      dup5\n        /* \"#utility.yul\":509:580   */\n      tag_33\n      jump\t// in\n    tag_47:\n        /* \"#utility.yul\":365:587   */\n      swap3\n      swap2\n      pop\n      pop\n      jump\t// out\n        /* \"#utility.yul\":593:669   */\n    tag_34:\n        /* \"#utility.yul\":629:636   */\n      0x00\n        /* \"#utility.yul\":658:663   */\n      dup2\n        /* \"#utility.yul\":647:663   */\n      swap1\n      pop\n        /* \"#utility.yul\":593:669   */\n      swap2\n      swap1\n      pop\n      jump\t// out\n        /* \"#utility.yul\":675:790   */\n    tag_35:\n        /* \"#utility.yul\":760:783   */\n      tag_50\n        /* \"#utility.yul\":777:782   */\n      dup2\n        /* \"#utility.yul\":760:783   */\n      tag_34\n      jump\t// in\n    tag_50:\n        /* \"#utility.yul\":755:758   */\n      dup3\n        /* \"#utility.yul\":748:784   */\n      mstore\n        /* \"#utility.yul\":675:790   */\n      pop\n      pop\n      jump\t// out\n        /* \"#utility.yul\":796:1014   */\n    tag_17:\n        /* \"#utility.yul\":887:891   */\n      0x00\n        /* \"#utility.yul\":925:927   */\n      0x20\n        /* \"#utility.yul\":914:923   */\n      dup3\n        /* \"#utility.yul\":910:928   */\n      add\n        /* \"#utility.yul\":902:928   */\n      swap1\n      pop\n        /* \"#utility.yul\":938:1007   */\n      tag_52\n        /* \"#utility.yul\":1004:1005   */\n      0x00\n        /* \"#utility.yul\":993:1002   */\n      dup4\n        /* \"#utility.yul\":989:1006   */\n      add\n        /* \"#utility.yul\":980:986   */\n      dup5\n        /* \"#utility.yul\":938:1007   */\n      tag_35\n      jump\t// in\n    tag_52:\n        /* \"#utility.yul\":796:1014   */\n      swap3\n      swap2\n      pop\n      pop\n      jump\t// out\n        /* \"#utility.yul\":1020:1189   */\n    tag_36:\n        /* \"#utility.yul\":1104:1115   */\n      0x00\n        /* \"#utility.yul\":1138:1144   */\n      dup3\n        /* \"#utility.yul\":1133:1136   */\n      dup3\n        /* \"#utility.yul\":1126:1145   */\n      mstore\n        /* \"#utility.yul\":1178:1182   */\n      0x20\n        /* \"#utility.yul\":1173:1176   */\n      dup3\n        /* \"#utility.yul\":1169:1183   */\n      add\n        /* \"#utility.yul\":1154:1183   */\n      swap1\n      pop\n        /* \"#utility.yul\":1020:1189   */\n      swap3\n      swap2\n      pop\n      pop\n      jump\t// out\n        /* \"#utility.yul\":1195:1354   */\n    tag_37:\n        /* \"#utility.yul\":1335:1346   */\n      0x6e6f74206f776e65720000000000000000000000000000000000000000000000\n        /* \"#utility.yul\":1331:1332   */\n      0x00\n        /* \"#utility.yul\":1323:1329   */\n      dup3\n        /* \"#utility.yul\":1319:1333   */\n      add\n        /* \"#utility.yul\":1312:1347   */\n      mstore\n        /* \"#utility.yul\":1195:1354   */\n      pop\n      jump\t// out\n        /* \"#utility.yul\":1360:1725   */\n    tag_38:\n        /* \"#utility.yul\":1502:1505   */\n      0x00\n        /* \"#utility.yul\":1523:1589   */\n      tag_56\n        /* \"#utility.yul\":1587:1588   */\n      0x09\n        /* \"#utility.yul\":1582:1585   */\n      dup4\n        /* \"#utility.yul\":1523:1589   */\n      tag_36\n      jump\t// in\n    tag_56:\n        /* \"#utility.yul\":1516:1589   */\n      swap2\n      pop\n        /* \"#utility.yul\":1598:1691   */\n      tag_57\n        /* \"#utility.yul\":1687:1690   */\n      dup3\n        /* \"#utility.yul\":1598:1691   */\n      tag_37\n      jump\t// in\n    tag_57:\n        /* \"#utility.yul\":1716:1718   */\n      0x20\n        /* \"#utility.yul\":1711:1714   */\n      dup3\n        /* \"#utility.yul\":1707:1719   */\n      add\n        /* \"#utility.yul\":1700:1719   */\n      swap1\n      pop\n        /* \"#utility.yul\":1360:1725   */\n      swap2\n      swap1\n      pop\n      jump\t// out\n        /* \"#utility.yul\":1731:2150   */\n    tag_26:\n        /* \"#utility.yul\":1897:1901   */\n      0x00\n        /* \"#utility.yul\":1935:1937   */\n      0x20\n        /* \"#utility.yul\":1924:1933   */\n      dup3\n        /* \"#utility.yul\":1920:1938   */\n      add\n        /* \"#utility.yul\":1912:1938   */\n      swap1\n      pop\n        /* \"#utility.yul\":1984:1993   */\n      dup2\n        /* \"#utility.yul\":1978:1982   */\n      dup2\n        /* \"#utility.yul\":1974:1994   */\n      sub\n        /* \"#utility.yul\":1970:1971   */\n      0x00\n        /* \"#utility.yul\":1959:1968   */\n      dup4\n        /* \"#utility.yul\":1955:1972   */\n      add\n        /* \"#utility.yul\":1948:1995   */\n      mstore\n        /* \"#utility.yul\":2012:2143   */\n      tag_59\n        /* \"#utility.yul\":2138:2142   */\n      dup2\n        /* \"#utility.yul\":2012:2143   */\n      tag_38\n      jump\t// in\n    tag_59:\n        /* \"#utility.yul\":2004:2143   */\n      swap1\n      pop\n        /* \"#utility.yul\":1731:2150   */\n      swap2\n      swap1\n      pop\n      jump\t// out\n        /* \"#utility.yul\":2156:2336   */\n    tag_39:\n        /* \"#utility.yul\":2204:2281   */\n      0x4e487b7100000000000000000000000000000000000000000000000000000000\n        /* \"#utility.yul\":2201:2202   */\n      0x00\n        /* \"#utility.yul\":2194:2282   */\n      mstore\n        /* \"#utility.yul\":2301:2305   */\n      0x11\n        /* \"#utility.yul\":2298:2299   */\n      0x04\n        /* \"#utility.yul\":2291:2306   */\n      mstore\n        /* \"#utility.yul\":2325:2329   */\n      0x24\n        /* \"#utility.yul\":2322:2323   */\n      0x00\n        /* \"#utility.yul\":2315:2330   */\n      revert\n        /* \"#utility.yul\":2342:2573   */\n    tag_28:\n        /* \"#utility.yul\":2380:2383   */\n      0x00\n        /* \"#utility.yul\":2403:2426   */\n      tag_62\n        /* \"#utility.yul\":2420:2425   */\n      dup3\n        /* \"#utility.yul\":2403:2426   */\n      tag_34\n      jump\t// in\n    tag_62:\n        /* \"#utility.yul\":2394:2426   */\n      swap2\n      pop\n        /* \"#utility.yul\":2448:2514   */\n      0x7fffffffffffffffffffffffffffffffffffffffffffffffffffffffffffffff\n        /* \"#utility.yul\":2441:2446   */\n      dup3\n        /* \"#utility.yul\":2438:2515   */\n      sub\n        /* \"#utility.yul\":2435:2538   */\n      tag_63\n      jumpi\n        /* \"#utility.yul\":2518:2536   */\n      tag_64\n      tag_39\n      jump\t// in\n    tag_64:\n        /* \"#utility.yul\":2435:2538   */\n    tag_63:\n        /* \"#utility.yul\":2565:2566   */\n      0x01\n        /* \"#utility.yul\":2558:2563   */\n      dup3\n        /* \"#utility.yul\":2554:2567   */\n      add\n        /* \"#utility.yul\":2547:2567   */\n      swap1\n      pop\n        /* \"#utility.yul\":2342:2573   */\n      swap2\n      swap1\n      pop\n      jump\t// out\n\n    auxdata: 0xa26469706673582212207f948f7e450e4b30f2e5516e237eaea53fb81094e94d301759b60825d34bb62064736f6c634300081e0033\n}\n",
				"bytecode": {
					"linkReferences": {},
					"object": "6080604052348015600e575f5ffd5b50335f5f6101000a81548173ffffffffffffffffffffffffffffffffffffffff021916908373ffffffffffffffffffffffffffffffffffffffff1602179055506103628061005b5f395ff3fe608060405234801561000f575f5ffd5b5060043610610055575f3560e01c80638da5cb5b146100595780639ce3134614610077578063cc9fb19814610081578063ec246ff31461009f578063f079218a146100bd575b5f5ffd5b6100616100c7565b60405161006e91906101f6565b60405180910390f35b61007f6100eb565b005b610089610192565b6040516100969190610227565b60405180910390f35b6100a7610198565b6040516100b49190610227565b60405180910390f35b6100c561019e565b005b5f5f9054906101000a900473ffffffffffffffffffffffffffffffffffffffff1681565b5f5f9054906101000a900473ffffffffffffffffffffffffffffffffffffffff1673ffffffffffffffffffffffffffffffffffffffff163373ffffffffffffffffffffffffffffffffffffffff1614610179576040517f08c379a00000000000000000000000000000000000000000000000000000000081526004016101709061029a565b60405180910390fd5b60015f81548092919061018b906102e5565b9190505550565b60015481565b60025481565b60025f8154809291906101b0906102e5565b9190505550565b5f73ffffffffffffffffffffffffffffffffffffffff82169050919050565b5f6101e0826101b7565b9050919050565b6101f0816101d6565b82525050565b5f6020820190506102095f8301846101e7565b92915050565b5f819050919050565b6102218161020f565b82525050565b5f60208201905061023a5f830184610218565b92915050565b5f82825260208201905092915050565b7f6e6f74206f776e657200000000000000000000000000000000000000000000005f82015250565b5f610284600983610240565b915061028f82610250565b602082019050919050565b5f6020820190508181035f8301526102b181610278565b9050919050565b7f4e487b71000000000000000000000000000000000000000000000000000000005f52601160045260245ffd5b5f6102ef8261020f565b91507f7fffffffffffffffffffffffffffffffffffffffffffffffffffffffffffffff8203610321576103206102b8565b5b60018201905091905056fea26469706673582212207f948f7e450e4b30f2e5516e237eaea53fb81094e94d301759b60825d34bb62064736f6c634300081e0033",
					"opcodes": "PUSH1 0x80 PUSH1 0x40 MSTORE CALLVALUE DUP1 ISZERO PUSH1 0xE JUMPI PUSH0 PUSH0 REVERT JUMPDEST POP CALLER PUSH0 PUSH0 PUSH2 0x100 EXP DUP2 SLOAD DUP2 PUSH20 0xFFFFFFFFFFFFFFFFFFFFFFFFFFFFFFFFFFFFFFFF MUL NOT AND SWAP1 DUP4 PUSH20 0xFFFFFFFFFFFFFFFFFFFFFFFFFFFFFFFFFFFFFFFF AND MUL OR SWAP1 SSTORE POP PUSH2 0x362 DUP1 PUSH2 0x5B PUSH0 CODECOPY PUSH0 RETURN INVALID PUSH1 0x80 PUSH1 0x40 MSTORE CALLVALUE DUP1 ISZERO PUSH2 0xF JUMPI PUSH0 PUSH0 REVERT JUMPDEST POP PUSH1 0x4 CALLDATASIZE LT PUSH2 0x55 JUMPI PUSH0 CALLDATALOAD PUSH1 0xE0 SHR DUP1 PUSH4 0x8DA5CB5B EQ PUSH2 0x59 JUMPI DUP1 PUSH4 0x9CE31346 EQ PUSH2 0x77 JUMPI DUP1 PUSH4 0xCC9FB198 EQ PUSH2 0x81 JUMPI DUP1 PUSH4 0xEC246FF3 EQ PUSH2 0x9F JUMPI DUP1 PUSH4 0xF079218A EQ PUSH2 0xBD JUMPI JUMPDEST PUSH0 PUSH0 REVERT JUMPDEST PUSH2 0x61 PUSH2 0xC7 JUMP JUMPDEST PUSH1 0x40 MLOAD PUSH2 0x6E SWAP2 SWAP1 PUSH2 0x1F6 JUMP JUMPDEST PUSH1 0x40 MLOAD DUP1 SWAP2 SUB SWAP1 RETURN JUMPDEST PUSH2 0x7F PUSH2 0xEB JUMP JUMPDEST STOP JUMPDEST PUSH2 0x89 PUSH2 0x192 JUMP JUMPDEST PUSH1 0x40 MLOAD PUSH2 0x96 SWAP2 SWAP1 PUSH2 0x227 JUMP JUMPDEST PUSH1 0x40 MLOAD DUP1 SWAP2 SUB SWAP1 RETURN JUMPDEST PUSH2 0xA7 PUSH2 0x198 JUMP JUMPDEST PUSH1 0x40 MLOAD PUSH2 0xB4 SWAP2 SWAP1 PUSH2 0x227 JUMP JUMPDEST PUSH1 0x40 MLOAD DUP1 SWAP2 SUB SWAP1 RETURN JUMPDEST PUSH2 0xC5 PUSH2 0x19E JUMP JUMPDEST STOP JUMPDEST PUSH0 PUSH0 SWAP1 SLOAD SWAP1 PUSH2 0x100 EXP SWAP1 DIV PUSH20 0xFFFFFFFFFFFFFFFFFFFFFFFFFFFFFFFFFFFFFFFF AND DUP2 JUMP JUMPDEST PUSH0 PUSH0 SWAP1 SLOAD SWAP1 PUSH2 0x100 EXP SWAP1 DIV PUSH20 0xFFFFFFFFFFFFFFFFFFFFFFFFFFFFFFFFFFFFFFFF AND PUSH20 0xFFFFFFFFFFFFFFFFFFFFFFFFFFFFFFFFFFFFFFFF AND CALLER PUSH20 0xFFFFFFFFFFFFFFFFFFFFFFFFFFFFFFFFFFFFFFFF AND EQ PUSH2 0x179 JUMPI PUSH1 0x40 MLOAD PUSH32 0x8C379A000000000000000000000000000000000000000000000000000000000 DUP2 MSTORE PUSH1 0x4 ADD PUSH2 0x170 SWAP1 PUSH2 0x29A JUMP JUMPDEST PUSH1 0x40 MLOAD DUP1 SWAP2 SUB SWAP1 REVERT JUMPDEST PUSH1 0x1 PUSH0 DUP2 SLOAD DUP1 SWAP3 SWAP2 SWAP1 PUSH2 0x18B SWAP1 PUSH2 0x2E5 JUMP JUMPDEST SWAP2 SWAP1 POP SSTORE POP JUMP JUMPDEST PUSH1 0x1 SLOAD DUP2 JUMP JUMPDEST PUSH1 0x2 SLOAD DUP2 JUMP JUMPDEST PUSH1 0x2 PUSH0 DUP2 SLOAD DUP1 SWAP3 SWAP2 SWAP1 PUSH2 0x1B0 SWAP1 PUSH2 0x2E5 JUMP JUMPDEST SWAP2 SWAP1 POP SSTORE POP JUMP JUMPDEST PUSH0 PUSH20 0xFFFFFFFFFFFFFFFFFFFFFFFFFFFFFFFFFFFFFFFF DUP3 AND SWAP1 POP SWAP2 SWAP1 POP JUMP JUMPDEST PUSH0 PUSH2 0x1E0 DUP3 PUSH2 0x1B7 JUMP JUMPDEST SWAP1 POP SWAP2 SWAP1 POP JUMP JUMPDEST PUSH2 0x1F0 DUP2 PUSH2 0x1D6 JUMP JUMPDEST DUP3 MSTORE POP POP JUMP JUMPDEST PUSH0 PUSH1 0x20 DUP3 ADD SWAP1 POP PUSH2 0x209 PUSH0 DUP4 ADD DUP5 PUSH2 0x1E7 JUMP JUMPDEST SWAP3 SWAP2 POP POP JUMP JUMPDEST PUSH0 DUP2 SWAP1 POP SWAP2 SWAP1 POP JUMP JUMPDEST PUSH2 0x221 DUP2 PUSH2 0x20F JUMP JUMPDEST DUP3 MSTORE POP POP JUMP JUMPDEST PUSH0 PUSH1 0x20 DUP3 ADD SWAP1 POP PUSH2 0x23A PUSH0 DUP4 ADD DUP5 PUSH2 0x218 JUMP JUMPDEST SWAP3 SWAP2 POP POP JUMP JUMPDEST PUSH0 DUP3 DUP3 MSTORE PUSH1 0x20 DUP3 ADD SWAP1 POP SWAP3 SWAP2 POP POP JUMP JUMPDEST PUSH32 0x6E6F74206F776E65720000000000000000000000000000000000000000000000 PUSH0 DUP3 ADD MSTORE POP JUMP JUMPDEST PUSH0 PUSH2 0x284 PUSH1 0x9 DUP4 PUSH2 0x240 JUMP JUMPDEST SWAP2 POP PUSH2 0x28F DUP3 PUSH2 0x250 JUMP JUMPDEST PUSH1 0x20 DUP3 ADD SWAP1 POP SWAP2 SWAP1 POP JUMP JUMPDEST PUSH0 PUSH1 0x20 DUP3 ADD SWAP1 POP DUP2 DUP2 SUB PUSH0 DUP4 ADD MSTORE PUSH2 0x2B1 DUP2 PUSH2 0x278 JUMP JUMPDEST SWAP1 POP SWAP2 SWAP1 POP JUMP JUMPDEST PUSH32 0x4E487B7100000000000000000000000000000000000000000000000000000000 PUSH0 MSTORE PUSH1 0x11 PUSH1 0x4 MSTORE PUSH1 0x24 PUSH0 REVERT JUMPDEST PUSH0 PUSH2 0x2EF DUP3 PUSH2 0x20F JUMP JUMPDEST SWAP2 POP PUSH32 0x7FFFFFFFFFFFFFFFFFFFFFFFFFFFFFFFFFFFFFFFFFFFFFFFFFFFFFFFFFFFFFFF DUP3 SUB PUSH2 0x321 JUMPI PUSH2 0x320 PUSH2 0x2B8 JUMP JUMPDEST JUMPDEST PUSH1 0x1 DUP3 ADD SWAP1 POP SWAP2 SWAP1 POP JUMP INVALID LOG2 PUSH5 0x6970667358 0x22 SLT KECCAK256 PUSH32 0x948F7E450E4B30F2E5516E237EAEA53FB81094E94D301759B60825D34BB62064 PUSH20 0x6F6C634300081E00330000000000000000000000 "
				},
				"gasEstimates": {
					"creation": {
						"codeDepositCost": "173200",
						"executionCost": "24482",
						"totalCost": "197682"
					},
					"external": {
						"nonProtectedCall()": "24563",
						"owner()": "2485",
						"ownerCalls()": "2447",
						"protectedCall()": "26665",
						"publicCalls()": "2469"
					}
				},
				"methodIdentifiers": {
					"nonProtectedCall()": "f079218a",
					"owner()": "8da5cb5b",
					"ownerCalls()": "cc9fb198",
					"protectedCall()": "9ce31346",
					"publicCalls()": "ec246ff3"
				}
			},
			"storageLayout": {
				"storage": [
					{
						"astId": 3,
						"contract": "contracts/Ownable.sol:Ownable",
						"label": "owner",
						"offset": 0,
						"slot": "0",
						"type": "t_address"
					},
					{
						"astId": 5,
						"contract": "contracts/Ownable.sol:Ownable",
						"label": "ownerCalls",
						"offset": 0,
						"slot": "1",
						"type": "t_int256"
					},
					{
						"astId": 7,
						"contract": "contracts/Ownable.sol:Ownable",
						"label": "publicCalls",
						"offset": 0,
						"slot": "2",
						"type": "t_int256"
					}
				],
				"types": {
					"t_address": {
						"encoding": "inplace",
						"label": "address",
						"numberOfBytes": "20"
					},
					"t_int256": {
						"encoding": "inplace",
						"label": "int256",
						"numberOfBytes": "32"
					}
				}
			},
			"userdoc": {
				"kind": "user",
				"methods": {},
				"version": 1
			}
		}
	}
}