{
	"data": {
		"bytecode": {
			"linkReferences": {},
			"object": "6080604052348015600e575f5ffd5b506101c08061001c5f395ff3fe608060405234801561000f575f5ffd5b506004361061003f575f3560e01c806321e362f3146100435780637f0ea53c14610061578063f8cd433c1461007f575b5f5ffd5b61004b61009d565b6040516100589190610103565b60405180910390f35b6100696100c2565b6040516100769190610103565b60405180910390f35b6100876100c7565b6040516100949190610103565b60405180910390f35b5f5f60019050805f5f8282546100b39190610149565b925050819055505f5491505090565b5f5481565b5f5f60019050805f5f8282546100dd9190610149565b925050819055508091505090565b5f819050919050565b6100fd816100eb565b82525050565b5f6020820190506101165f8301846100f4565b92915050565b7f4e487b71000000000000000000000000000000000000000000000000000000005f52601160045260245ffd5b5f610153826100eb565b915061015e836100eb565b92508282019050828112155f8312168382125f8412151617156101845761018361011c565b5b9291505056fea2646970667358221220847ab67ad8fb61738f1fc0651297b8fa28d4f15f6d893b2ad145b955ee209eb364736f6c634300081e0033",
			"opcodes": "PUSH1 0x80 PUSH1 0x40 MSTORE CALLVALUE DUP1 ISZERO PUSH1 0xE JUMPI PUSH0 PUSH0 REVERT JUMPDEST POP PUSH2 0x1C0 DUP1 PUSH2 0x1C PUSH0 CODECOPY PUSH0 RETURN INVALID PUSH1 0x80 PUSH1 0x40 MSTORE CALLVALUE DUP1 ISZERO PUSH2 0xF JUMPI PUSH0 PUSH0 REVERT JUMPDEST POP PUSH1 0x4 CALLDATASIZE LT PUSH2 0x3F JUMPI PUSH0 CALLDATALOAD PUSH1 0xE0 SHR DUP1 PUSH4 0x21E362F3 EQ PUSH2 0x43 JUMPI DUP1 PUSH4 0x7F0EA53C EQ PUSH2 0x61 JUMPI DUP1 PUSH4 0xF8CD433C EQ PUSH2 0x7F JUMPI JUMPDEST PUSH0 PUSH0 REVERT JUMPDEST PUSH2 0x4B PUSH2 0x9D JUMP JUMPDEST PUSH1 0x40 MLOAD PUSH2 0x58 SWAP2 SWAP1 PUSH2 0x103 JUMP JUMPDEST PUSH1 0x40 MLOAD DUP1 SWAP2 SUB SWAP1 RETURN JUMPDEST PUSH2 0x69 PUSH2 0xC2 JUMP JUMPDEST PUSH1 0x40 MLOAD PUSH2 0x76 SWAP2 SWAP1 PUSH2 0x103 JUMP JUMPDEST PUSH1 0x40 MLOAD DUP1 SWAP2 SUB SWAP1 RETURN JUMPDEST PUSH2 0x87 PUSH2 0xC7 JUMP JUMPDEST PUSH1 0x40 MLOAD PUSH2 0x94 SWAP2 SWAP1 PUSH2 0x103 JUMP JUMPDEST PUSH1 0x40 MLOAD DUP1 SWAP2 SUB SWAP1 RETURN JUMPDEST PUSH0 PUSH0 PUSH1 0x1 SWAP1 POP DUP1 PUSH0 PUSH0 DUP3 DUP3 SLOAD PUSH2 0xB3 SWAP2 SWAP1 PUSH2 0x149 JUMP JUMPDEST SWAP3 POP POP DUP2 SWAP1 SSTORE POP PUSH0 SLOAD SWAP2 POP POP SWAP1 JUMP JUMPDEST PUSH0 SLOAD DUP2 JUMP JUMPDEST PUSH0 PUSH0 PUSH1 0x1 SWAP1 POP DUP1 PUSH0 PUSH0 DUP3 DUP3 SLOAD PUSH2 0xDD SWAP2 SWAP1 PUSH2 0x149 JUMP JUMPDEST SWAP3 POP POP DUP2 SWAP1 SSTORE POP DUP1 SWAP2 POP POP SWAP1 JUMP JUMPDEST PUSH0 DUP2 SWAP1 POP SWAP2 SWAP1 POP JUMP JUMPDEST PUSH2 0xFD DUP2 PUSH2 0xEB JUMP JUMPDEST DUP3 MSTORE POP POP JUMP JUMPDEST PUSH0 PUSH1 0x20 DUP3 ADD SWAP1 POP PUSH2 0x116 PUSH0 DUP4 ADD DUP5 PUSH2 0xF4 JUMP JUMPDEST SWAP3 SWAP2 POP POP JUMP JUMPDEST PUSH32 0x4E487B7100000000000000000000000000000000000000000000000000000000 PUSH0 MSTORE PUSH1 0x11 PUSH1 0x4 MSTORE PUSH1 0x24 PUSH0 REVERT JUMPDEST PUSH0 PUSH2 0x153 DUP3 PUSH2 0xEB JUMP JUMPDEST SWAP2 POP PUSH2 0x15E DUP4 PUSH2 0xEB JUMP JUMPDEST SWAP3 POP DUP3 DUP3 ADD SWAP1 POP DUP3 DUP2 SLT ISZERO PUSH0 DUP4 SLT AND DUP4 DUP3 SLT PUSH0 DUP5 SLT ISZERO AND OR ISZERO PUSH2 0x184 JUMPI PUSH2 0x183 PUSH2 0x11C JUMP JUMPDEST JUMPDEST SWAP3 SWAP2 POP POP JUMP INVALID LOG2 PUSH5 0x6970667358 0x22 SLT KECCAK256 DUP5 PUSH27 0xB67AD8FB61738F1FC0651297B8FA28D4F15F6D893B2AD145B955EE KECCAK256 SWAP15 0xB3 PUSH5 0x736F6C6343 STOP ADDMOD 0x1E STOP CALLER "
		},
		"gasEstimates": {
			"creation": {
				"codeDepositCost": "89600",
				"executionCost": "133",
				"totalCost": "89733"
			},
			"external": {
				"changingValue()": "2424",
				"getChangingValue()": "infinite",
				"getLocalValue()": "infinite"
			}
		},
		"methodIdentifiers": {
			"changingValue()": "7f0ea53c",
			"getChangingValue()": "21e362f3",
			"getLocalValue()": "f8cd433c"
		}
	},
	"abi": [
		{
			"inputs": [],
			"name": "changingValue",
			"outputs": [
				{
					"internalType": "int256",
					"name": "",
					"type": "int256"
				}
			],
			"stateMutability": "view",
			"type": "function"
		},
		{
			"inputs": [],
			"name": "getChangingValue",
			"outputs": [
				{
					"internalType": "int256",
					"name": "",
					"type": "int256"
				}
			],
			"stateMutability": "nonpayable",
			"type": "function"
		},
		{
			"inputs": [],
			"name": "getLocalValue",
			"outputs": [
				{
					"internalType": "int256",
					"name": "",
					"type": "int256"
				}
			],
			"stateMutability": "nonpayable",
			"type": "function"
		}
	]
}